{
  "_format": "hh-sol-artifact-1",
  "contractName": "NFT",
  "sourceName": "contracts/NFT.sol",
  "abi": [
    {
      "inputs": [],
      "stateMutability": "nonpayable",
      "type": "constructor"
    },
    {
      "anonymous": false,
      "inputs": [
        {
          "indexed": true,
          "internalType": "address",
          "name": "owner",
          "type": "address"
        },
        {
          "indexed": true,
          "internalType": "address",
          "name": "approved",
          "type": "address"
        },
        {
          "indexed": true,
          "internalType": "uint256",
          "name": "tokenId",
          "type": "uint256"
        }
      ],
      "name": "Approval",
      "type": "event"
    },
    {
      "anonymous": false,
      "inputs": [
        {
          "indexed": true,
          "internalType": "address",
          "name": "owner",
          "type": "address"
        },
        {
          "indexed": true,
          "internalType": "address",
          "name": "operator",
          "type": "address"
        },
        {
          "indexed": false,
          "internalType": "bool",
          "name": "approved",
          "type": "bool"
        }
      ],
      "name": "ApprovalForAll",
      "type": "event"
    },
    {
      "anonymous": false,
      "inputs": [
        {
          "indexed": true,
          "internalType": "address",
          "name": "previousOwner",
          "type": "address"
        },
        {
          "indexed": true,
          "internalType": "address",
          "name": "newOwner",
          "type": "address"
        }
      ],
      "name": "OwnershipTransferred",
      "type": "event"
    },
    {
      "anonymous": false,
      "inputs": [
        {
          "indexed": true,
          "internalType": "address",
          "name": "from",
          "type": "address"
        },
        {
          "indexed": true,
          "internalType": "address",
          "name": "to",
          "type": "address"
        },
        {
          "indexed": true,
          "internalType": "uint256",
          "name": "tokenId",
          "type": "uint256"
        }
      ],
      "name": "Transfer",
      "type": "event"
    },
    {
      "inputs": [],
      "name": "MINT_PRICE_1",
      "outputs": [
        {
          "internalType": "uint256",
          "name": "",
          "type": "uint256"
        }
      ],
      "stateMutability": "view",
      "type": "function"
    },
    {
      "inputs": [],
      "name": "MINT_PRICE_2",
      "outputs": [
        {
          "internalType": "uint256",
          "name": "",
          "type": "uint256"
        }
      ],
      "stateMutability": "view",
      "type": "function"
    },
    {
      "inputs": [],
      "name": "MINT_PRICE_3",
      "outputs": [
        {
          "internalType": "uint256",
          "name": "",
          "type": "uint256"
        }
      ],
      "stateMutability": "view",
      "type": "function"
    },
    {
      "inputs": [],
      "name": "TOTAL_SUPPLY",
      "outputs": [
        {
          "internalType": "uint256",
          "name": "",
          "type": "uint256"
        }
      ],
      "stateMutability": "view",
      "type": "function"
    },
    {
      "inputs": [
        {
          "internalType": "address",
          "name": "to",
          "type": "address"
        },
        {
          "internalType": "uint256",
          "name": "tokenId",
          "type": "uint256"
        }
      ],
      "name": "approve",
      "outputs": [],
      "stateMutability": "nonpayable",
      "type": "function"
    },
    {
      "inputs": [
        {
          "internalType": "address",
          "name": "owner",
          "type": "address"
        }
      ],
      "name": "balanceOf",
      "outputs": [
        {
          "internalType": "uint256",
          "name": "",
          "type": "uint256"
        }
      ],
      "stateMutability": "view",
      "type": "function"
    },
    {
      "inputs": [],
      "name": "baseTokenURI",
      "outputs": [
        {
          "internalType": "string",
          "name": "",
          "type": "string"
        }
      ],
      "stateMutability": "view",
      "type": "function"
    },
    {
      "inputs": [
        {
          "internalType": "uint256",
          "name": "tokenId",
          "type": "uint256"
        }
      ],
      "name": "getApproved",
      "outputs": [
        {
          "internalType": "address",
          "name": "",
          "type": "address"
        }
      ],
      "stateMutability": "view",
      "type": "function"
    },
    {
      "inputs": [
        {
          "internalType": "address",
          "name": "owner",
          "type": "address"
        },
        {
          "internalType": "address",
          "name": "operator",
          "type": "address"
        }
      ],
      "name": "isApprovedForAll",
      "outputs": [
        {
          "internalType": "bool",
          "name": "",
          "type": "bool"
        }
      ],
      "stateMutability": "view",
      "type": "function"
    },
    {
      "inputs": [
        {
          "internalType": "address",
          "name": "recipient",
          "type": "address"
        },
        {
          "internalType": "uint256",
          "name": "num",
          "type": "uint256"
        }
      ],
      "name": "mintTo",
      "outputs": [
        {
          "internalType": "uint256",
          "name": "",
          "type": "uint256"
        }
      ],
      "stateMutability": "payable",
      "type": "function"
    },
    {
      "inputs": [],
      "name": "name",
      "outputs": [
        {
          "internalType": "string",
          "name": "",
          "type": "string"
        }
      ],
      "stateMutability": "view",
      "type": "function"
    },
    {
      "inputs": [],
      "name": "owner",
      "outputs": [
        {
          "internalType": "address",
          "name": "",
          "type": "address"
        }
      ],
      "stateMutability": "view",
      "type": "function"
    },
    {
      "inputs": [
        {
          "internalType": "uint256",
          "name": "tokenId",
          "type": "uint256"
        }
      ],
      "name": "ownerOf",
      "outputs": [
        {
          "internalType": "address",
          "name": "",
          "type": "address"
        }
      ],
      "stateMutability": "view",
      "type": "function"
    },
    {
      "inputs": [
        {
          "internalType": "address",
          "name": "dest",
          "type": "address"
        }
      ],
      "name": "payments",
      "outputs": [
        {
          "internalType": "uint256",
          "name": "",
          "type": "uint256"
        }
      ],
      "stateMutability": "view",
      "type": "function"
    },
    {
      "inputs": [],
      "name": "renounceOwnership",
      "outputs": [],
      "stateMutability": "nonpayable",
      "type": "function"
    },
    {
      "inputs": [
        {
          "internalType": "address",
          "name": "from",
          "type": "address"
        },
        {
          "internalType": "address",
          "name": "to",
          "type": "address"
        },
        {
          "internalType": "uint256",
          "name": "tokenId",
          "type": "uint256"
        }
      ],
      "name": "safeTransferFrom",
      "outputs": [],
      "stateMutability": "nonpayable",
      "type": "function"
    },
    {
      "inputs": [
        {
          "internalType": "address",
          "name": "from",
          "type": "address"
        },
        {
          "internalType": "address",
          "name": "to",
          "type": "address"
        },
        {
          "internalType": "uint256",
          "name": "tokenId",
          "type": "uint256"
        },
        {
          "internalType": "bytes",
          "name": "_data",
          "type": "bytes"
        }
      ],
      "name": "safeTransferFrom",
      "outputs": [],
      "stateMutability": "nonpayable",
      "type": "function"
    },
    {
      "inputs": [
        {
          "internalType": "address",
          "name": "operator",
          "type": "address"
        },
        {
          "internalType": "bool",
          "name": "approved",
          "type": "bool"
        }
      ],
      "name": "setApprovalForAll",
      "outputs": [],
      "stateMutability": "nonpayable",
      "type": "function"
    },
    {
      "inputs": [
        {
          "internalType": "string",
          "name": "_baseTokenURI",
          "type": "string"
        }
      ],
      "name": "setBaseTokenURI",
      "outputs": [],
      "stateMutability": "nonpayable",
      "type": "function"
    },
    {
      "inputs": [
        {
          "internalType": "bytes4",
          "name": "interfaceId",
          "type": "bytes4"
        }
      ],
      "name": "supportsInterface",
      "outputs": [
        {
          "internalType": "bool",
          "name": "",
          "type": "bool"
        }
      ],
      "stateMutability": "view",
      "type": "function"
    },
    {
      "inputs": [],
      "name": "symbol",
      "outputs": [
        {
          "internalType": "string",
          "name": "",
          "type": "string"
        }
      ],
      "stateMutability": "view",
      "type": "function"
    },
    {
      "inputs": [
        {
          "internalType": "uint256",
          "name": "tokenId",
          "type": "uint256"
        }
      ],
      "name": "tokenURI",
      "outputs": [
        {
          "internalType": "string",
          "name": "",
          "type": "string"
        }
      ],
      "stateMutability": "view",
      "type": "function"
    },
    {
      "inputs": [
        {
          "internalType": "address",
          "name": "from",
          "type": "address"
        },
        {
          "internalType": "address",
          "name": "to",
          "type": "address"
        },
        {
          "internalType": "uint256",
          "name": "tokenId",
          "type": "uint256"
        }
      ],
      "name": "transferFrom",
      "outputs": [],
      "stateMutability": "nonpayable",
      "type": "function"
    },
    {
      "inputs": [
        {
          "internalType": "address",
          "name": "newOwner",
          "type": "address"
        }
      ],
      "name": "transferOwnership",
      "outputs": [],
      "stateMutability": "nonpayable",
      "type": "function"
    },
    {
      "inputs": [
        {
          "internalType": "address payable",
          "name": "payee",
          "type": "address"
        }
      ],
      "name": "withdrawPayments",
      "outputs": [],
      "stateMutability": "nonpayable",
      "type": "function"
    }
  ],
  "bytecode": "0x60a06040523480156200001157600080fd5b506040518060400160405280600a81526020017f33313350726f79656374000000000000000000000000000000000000000000008152506040518060400160405280600381526020017f4e4654000000000000000000000000000000000000000000000000000000000081525081600090805190602001906200009692919062000230565b508060019080519060200190620000af92919062000230565b505050604051620000c090620002c1565b604051809103906000f080158015620000dd573d6000803e3d6000fd5b5073ffffffffffffffffffffffffffffffffffffffff1660808173ffffffffffffffffffffffffffffffffffffffff1660601b8152505062000134620001286200016260201b60201c565b6200016a60201b60201c565b60405180602001604052806000815250600890805190602001906200015b92919062000230565b5062000353565b600033905090565b6000600660009054906101000a900473ffffffffffffffffffffffffffffffffffffffff16905081600660006101000a81548173ffffffffffffffffffffffffffffffffffffffff021916908373ffffffffffffffffffffffffffffffffffffffff1602179055508173ffffffffffffffffffffffffffffffffffffffff168173ffffffffffffffffffffffffffffffffffffffff167f8be0079c531659141344cd1fd0a4f28419497f9722a3daafe3b4186f6b6457e060405160405180910390a35050565b8280546200023e90620002ee565b90600052602060002090601f016020900481019282620002625760008555620002ae565b82601f106200027d57805160ff1916838001178555620002ae565b82800160010185558215620002ae579182015b82811115620002ad57825182559160200191906001019062000290565b5b509050620002bd9190620002cf565b5090565b610d098062003c7e83390190565b5b80821115620002ea576000816000905550600101620002d0565b5090565b600060028204905060018216806200030757607f821691505b602082108114156200031e576200031d62000324565b5b50919050565b7f4e487b7100000000000000000000000000000000000000000000000000000000600052602260045260246000fd5b60805160601c6139056200037960003960008181611206015261193401526139056000f3fe6080604052600436106101665760003560e01c8063715018a6116100d1578063c87b56dd1161008a578063e5002a5c11610064578063e5002a5c14610541578063e985e9c51461056c578063f2fde38b146105a9578063f42fe45d146105d257610166565b8063c87b56dd1461049c578063d547cfb7146104d9578063e2982c211461050457610166565b8063715018a6146103b25780638da5cb5b146103c9578063902d55a5146103f457806395d89b411461041f578063a22cb4651461044a578063b88d4fde1461047357610166565b806331b3eb941161012357806331b3eb941461028b57806342842e0e146102b4578063449a52f8146102dd57806360003e861461030d5780636352211e1461033857806370a082311461037557610166565b806301ffc9a71461016b57806306fdde03146101a8578063081812fc146101d3578063095ea7b31461021057806323b872dd1461023957806330176e1314610262575b600080fd5b34801561017757600080fd5b50610192600480360381019061018d919061269f565b6105fd565b60405161019f9190612bc5565b60405180910390f35b3480156101b457600080fd5b506101bd6106df565b6040516101ca9190612be0565b60405180910390f35b3480156101df57600080fd5b506101fa60048036038101906101f59190612732565b610771565b6040516102079190612b43565b60405180910390f35b34801561021c57600080fd5b5061023760048036038101906102329190612663565b6107f6565b005b34801561024557600080fd5b50610260600480360381019061025b919061255d565b61090e565b005b34801561026e57600080fd5b50610289600480360381019061028491906126f1565b61096e565b005b34801561029757600080fd5b506102b260048036038101906102ad91906124f8565b610a04565b005b3480156102c057600080fd5b506102db60048036038101906102d6919061255d565b610a8c565b005b6102f760048036038101906102f29190612663565b610aac565b6040516103049190612e82565b60405180910390f35b34801561031957600080fd5b50610322610d9c565b60405161032f9190612e82565b60405180910390f35b34801561034457600080fd5b5061035f600480360381019061035a9190612732565b610da1565b60405161036c9190612b43565b60405180910390f35b34801561038157600080fd5b5061039c600480360381019061039791906124cf565b610e53565b6040516103a99190612e82565b60405180910390f35b3480156103be57600080fd5b506103c7610f0b565b005b3480156103d557600080fd5b506103de610f93565b6040516103eb9190612b43565b60405180910390f35b34801561040057600080fd5b50610409610fbd565b6040516104169190612e82565b60405180910390f35b34801561042b57600080fd5b50610434610fc3565b6040516104419190612be0565b60405180910390f35b34801561045657600080fd5b50610471600480360381019061046c9190612627565b611055565b005b34801561047f57600080fd5b5061049a600480360381019061049591906125ac565b61106b565b005b3480156104a857600080fd5b506104c360048036038101906104be9190612732565b6110cd565b6040516104d09190612be0565b60405180910390f35b3480156104e557600080fd5b506104ee611174565b6040516104fb9190612be0565b60405180910390f35b34801561051057600080fd5b5061052b600480360381019061052691906124cf565b611202565b6040516105389190612e82565b60405180910390f35b34801561054d57600080fd5b506105566112b4565b6040516105639190612e82565b60405180910390f35b34801561057857600080fd5b50610593600480360381019061058e9190612521565b6112bf565b6040516105a09190612bc5565b60405180910390f35b3480156105b557600080fd5b506105d060048036038101906105cb91906124cf565b611353565b005b3480156105de57600080fd5b506105e761144b565b6040516105f49190612e82565b60405180910390f35b60007f80ac58cd000000000000000000000000000000000000000000000000000000007bffffffffffffffffffffffffffffffffffffffffffffffffffffffff1916827bffffffffffffffffffffffffffffffffffffffffffffffffffffffff191614806106c857507f5b5e139f000000000000000000000000000000000000000000000000000000007bffffffffffffffffffffffffffffffffffffffffffffffffffffffff1916827bffffffffffffffffffffffffffffffffffffffffffffffffffffffff1916145b806106d857506106d782611456565b5b9050919050565b6060600080546106ee90613144565b80601f016020809104026020016040519081016040528092919081815260200182805461071a90613144565b80156107675780601f1061073c57610100808354040283529160200191610767565b820191906000526020600020905b81548152906001019060200180831161074a57829003601f168201915b5050505050905090565b600061077c826114c0565b6107bb576040517f08c379a00000000000000000000000000000000000000000000000000000000081526004016107b290612d82565b60405180910390fd5b6004600083815260200190815260200160002060009054906101000a900473ffffffffffffffffffffffffffffffffffffffff169050919050565b600061080182610da1565b90508073ffffffffffffffffffffffffffffffffffffffff168373ffffffffffffffffffffffffffffffffffffffff161415610872576040517f08c379a000000000000000000000000000000000000000000000000000000000815260040161086990612e02565b60405180910390fd5b8073ffffffffffffffffffffffffffffffffffffffff1661089161152c565b73ffffffffffffffffffffffffffffffffffffffff1614806108c057506108bf816108ba61152c565b6112bf565b5b6108ff576040517f08c379a00000000000000000000000000000000000000000000000000000000081526004016108f690612d02565b60405180910390fd5b6109098383611534565b505050565b61091f61091961152c565b826115ed565b61095e576040517f08c379a000000000000000000000000000000000000000000000000000000000815260040161095590612e22565b60405180910390fd5b6109698383836116cb565b505050565b61097661152c565b73ffffffffffffffffffffffffffffffffffffffff16610994610f93565b73ffffffffffffffffffffffffffffffffffffffff16146109ea576040517f08c379a00000000000000000000000000000000000000000000000000000000081526004016109e190612dc2565b60405180910390fd5b8060089080519060200190610a009291906122c9565b5050565b610a0c61152c565b73ffffffffffffffffffffffffffffffffffffffff16610a2a610f93565b73ffffffffffffffffffffffffffffffffffffffff1614610a80576040517f08c379a0000000000000000000000000000000000000000000000000000000008152600401610a7790612dc2565b60405180910390fd5b610a8981611932565b50565b610aa78383836040518060200160405280600081525061106b565b505050565b600080610ab960076119c0565b9050600060058211158015610ad9575060068483610ad79190612f67565b115b15610b27576000811415610b22576040517f08c379a0000000000000000000000000000000000000000000000000000000008152600401610b1990612da2565b60405180910390fd5b610b8e565b600a8211158015610b435750600b8483610b419190612f67565b115b15610b8d576000811415610b8c576040517f08c379a0000000000000000000000000000000000000000000000000000000008152600401610b8390612da2565b60405180910390fd5b5b5b60008210158015610ba0575060058211155b15610bf857836000610bb29190612fee565b3414610bf3576040517f08c379a0000000000000000000000000000000000000000000000000000000008152600401610bea90612cc2565b60405180910390fd5b610cbc565b600582118015610c085750600a82105b15610c665783666f332f25784000610c209190612fee565b3414610c61576040517f08c379a0000000000000000000000000000000000000000000000000000000008152600401610c5890612cc2565b60405180910390fd5b610cbb565b8366d529ae9e860000610c799190612fee565b3414610cba576040517f08c379a0000000000000000000000000000000000000000000000000000000008152600401610cb190612cc2565b60405180910390fd5b5b5b60005b84811015610d9057611e618310610d0b576040517f08c379a0000000000000000000000000000000000000000000000000000000008152600401610d0290612e42565b60405180910390fd5b6000610d1687610e53565b90506007811115610d5c576040517f08c379a0000000000000000000000000000000000000000000000000000000008152600401610d5390612e62565b60405180910390fd5b610d6660076119ce565b610d7060076119c0565b9250610d7c87846119e4565b508080610d88906131a7565b915050610cbf565b50809250505092915050565b600081565b6000806002600084815260200190815260200160002060009054906101000a900473ffffffffffffffffffffffffffffffffffffffff169050600073ffffffffffffffffffffffffffffffffffffffff168173ffffffffffffffffffffffffffffffffffffffff161415610e4a576040517f08c379a0000000000000000000000000000000000000000000000000000000008152600401610e4190612d42565b60405180910390fd5b80915050919050565b60008073ffffffffffffffffffffffffffffffffffffffff168273ffffffffffffffffffffffffffffffffffffffff161415610ec4576040517f08c379a0000000000000000000000000000000000000000000000000000000008152600401610ebb90612d22565b60405180910390fd5b600360008373ffffffffffffffffffffffffffffffffffffffff1673ffffffffffffffffffffffffffffffffffffffff168152602001908152602001600020549050919050565b610f1361152c565b73ffffffffffffffffffffffffffffffffffffffff16610f31610f93565b73ffffffffffffffffffffffffffffffffffffffff1614610f87576040517f08c379a0000000000000000000000000000000000000000000000000000000008152600401610f7e90612dc2565b60405180910390fd5b610f916000611a02565b565b6000600660009054906101000a900473ffffffffffffffffffffffffffffffffffffffff16905090565b611e6181565b606060018054610fd290613144565b80601f0160208091040260200160405190810160405280929190818152602001828054610ffe90613144565b801561104b5780601f106110205761010080835404028352916020019161104b565b820191906000526020600020905b81548152906001019060200180831161102e57829003601f168201915b5050505050905090565b61106761106061152c565b8383611ac8565b5050565b61107c61107661152c565b836115ed565b6110bb576040517f08c379a00000000000000000000000000000000000000000000000000000000081526004016110b290612e22565b60405180910390fd5b6110c784848484611c35565b50505050565b60606110d8826114c0565b611117576040517f08c379a000000000000000000000000000000000000000000000000000000000815260040161110e90612de2565b60405180910390fd5b6000611121611c91565b90506000815111611141576040518060200160405280600081525061116c565b8061114b84611d23565b60405160200161115c929190612b1f565b6040516020818303038152906040525b915050919050565b6008805461118190613144565b80601f01602080910402602001604051908101604052809291908181526020018280546111ad90613144565b80156111fa5780601f106111cf576101008083540402835291602001916111fa565b820191906000526020600020905b8154815290600101906020018083116111dd57829003601f168201915b505050505081565b60007f000000000000000000000000000000000000000000000000000000000000000073ffffffffffffffffffffffffffffffffffffffff1663e3a9db1a836040518263ffffffff1660e01b815260040161125d9190612b43565b60206040518083038186803b15801561127557600080fd5b505afa158015611289573d6000803e3d6000fd5b505050506040513d601f19601f820116820180604052508101906112ad919061275b565b9050919050565b66d529ae9e86000081565b6000600560008473ffffffffffffffffffffffffffffffffffffffff1673ffffffffffffffffffffffffffffffffffffffff16815260200190815260200160002060008373ffffffffffffffffffffffffffffffffffffffff1673ffffffffffffffffffffffffffffffffffffffff16815260200190815260200160002060009054906101000a900460ff16905092915050565b61135b61152c565b73ffffffffffffffffffffffffffffffffffffffff16611379610f93565b73ffffffffffffffffffffffffffffffffffffffff16146113cf576040517f08c379a00000000000000000000000000000000000000000000000000000000081526004016113c690612dc2565b60405180910390fd5b600073ffffffffffffffffffffffffffffffffffffffff168173ffffffffffffffffffffffffffffffffffffffff16141561143f576040517f08c379a000000000000000000000000000000000000000000000000000000000815260040161143690612c22565b60405180910390fd5b61144881611a02565b50565b666f332f2578400081565b60007f01ffc9a7000000000000000000000000000000000000000000000000000000007bffffffffffffffffffffffffffffffffffffffffffffffffffffffff1916827bffffffffffffffffffffffffffffffffffffffffffffffffffffffff1916149050919050565b60008073ffffffffffffffffffffffffffffffffffffffff166002600084815260200190815260200160002060009054906101000a900473ffffffffffffffffffffffffffffffffffffffff1673ffffffffffffffffffffffffffffffffffffffff1614159050919050565b600033905090565b816004600083815260200190815260200160002060006101000a81548173ffffffffffffffffffffffffffffffffffffffff021916908373ffffffffffffffffffffffffffffffffffffffff160217905550808273ffffffffffffffffffffffffffffffffffffffff166115a783610da1565b73ffffffffffffffffffffffffffffffffffffffff167f8c5be1e5ebec7d5bd14f71427d1e84f3dd0314c0f7b2291e5b200ac8c7c3b92560405160405180910390a45050565b60006115f8826114c0565b611637576040517f08c379a000000000000000000000000000000000000000000000000000000000815260040161162e90612ce2565b60405180910390fd5b600061164283610da1565b90508073ffffffffffffffffffffffffffffffffffffffff168473ffffffffffffffffffffffffffffffffffffffff1614806116b157508373ffffffffffffffffffffffffffffffffffffffff1661169984610771565b73ffffffffffffffffffffffffffffffffffffffff16145b806116c257506116c181856112bf565b5b91505092915050565b8273ffffffffffffffffffffffffffffffffffffffff166116eb82610da1565b73ffffffffffffffffffffffffffffffffffffffff1614611741576040517f08c379a000000000000000000000000000000000000000000000000000000000815260040161173890612c42565b60405180910390fd5b600073ffffffffffffffffffffffffffffffffffffffff168273ffffffffffffffffffffffffffffffffffffffff1614156117b1576040517f08c379a00000000000000000000000000000000000000000000000000000000081526004016117a890612c82565b60405180910390fd5b6117bc838383611ed0565b6117c7600082611534565b6001600360008573ffffffffffffffffffffffffffffffffffffffff1673ffffffffffffffffffffffffffffffffffffffff16815260200190815260200160002060008282546118179190613048565b925050819055506001600360008473ffffffffffffffffffffffffffffffffffffffff1673ffffffffffffffffffffffffffffffffffffffff168152602001908152602001600020600082825461186e9190612f67565b92505081905550816002600083815260200190815260200160002060006101000a81548173ffffffffffffffffffffffffffffffffffffffff021916908373ffffffffffffffffffffffffffffffffffffffff160217905550808273ffffffffffffffffffffffffffffffffffffffff168473ffffffffffffffffffffffffffffffffffffffff167fddf252ad1be2c89b69c2b068fc378daa952ba7f163c4a11628f55a4df523b3ef60405160405180910390a461192d838383611ed5565b505050565b7f000000000000000000000000000000000000000000000000000000000000000073ffffffffffffffffffffffffffffffffffffffff166351cff8d9826040518263ffffffff1660e01b815260040161198b9190612b5e565b600060405180830381600087803b1580156119a557600080fd5b505af11580156119b9573d6000803e3d6000fd5b5050505050565b600081600001549050919050565b6001816000016000828254019250508190555050565b6119fe828260405180602001604052806000815250611eda565b5050565b6000600660009054906101000a900473ffffffffffffffffffffffffffffffffffffffff16905081600660006101000a81548173ffffffffffffffffffffffffffffffffffffffff021916908373ffffffffffffffffffffffffffffffffffffffff1602179055508173ffffffffffffffffffffffffffffffffffffffff168173ffffffffffffffffffffffffffffffffffffffff167f8be0079c531659141344cd1fd0a4f28419497f9722a3daafe3b4186f6b6457e060405160405180910390a35050565b8173ffffffffffffffffffffffffffffffffffffffff168373ffffffffffffffffffffffffffffffffffffffff161415611b37576040517f08c379a0000000000000000000000000000000000000000000000000000000008152600401611b2e90612ca2565b60405180910390fd5b80600560008573ffffffffffffffffffffffffffffffffffffffff1673ffffffffffffffffffffffffffffffffffffffff16815260200190815260200160002060008473ffffffffffffffffffffffffffffffffffffffff1673ffffffffffffffffffffffffffffffffffffffff16815260200190815260200160002060006101000a81548160ff0219169083151502179055508173ffffffffffffffffffffffffffffffffffffffff168373ffffffffffffffffffffffffffffffffffffffff167f17307eab39ab6107e8899845ad3d59bd9653f200f220920489ca2b5937696c3183604051611c289190612bc5565b60405180910390a3505050565b611c408484846116cb565b611c4c84848484611f35565b611c8b576040517f08c379a0000000000000000000000000000000000000000000000000000000008152600401611c8290612c02565b60405180910390fd5b50505050565b606060088054611ca090613144565b80601f0160208091040260200160405190810160405280929190818152602001828054611ccc90613144565b8015611d195780601f10611cee57610100808354040283529160200191611d19565b820191906000526020600020905b815481529060010190602001808311611cfc57829003601f168201915b5050505050905090565b60606000821415611d6b576040518060400160405280600181526020017f30000000000000000000000000000000000000000000000000000000000000008152509050611ecb565b600082905060005b60008214611d9d578080611d86906131a7565b915050600a82611d969190612fbd565b9150611d73565b60008167ffffffffffffffff811115611ddf577f4e487b7100000000000000000000000000000000000000000000000000000000600052604160045260246000fd5b6040519080825280601f01601f191660200182016040528015611e115781602001600182028036833780820191505090505b5090505b60008514611ec457600182611e2a9190613048565b9150600a85611e3991906131f0565b6030611e459190612f67565b60f81b818381518110611e81577f4e487b7100000000000000000000000000000000000000000000000000000000600052603260045260246000fd5b60200101907effffffffffffffffffffffffffffffffffffffffffffffffffffffffffffff1916908160001a905350600a85611ebd9190612fbd565b9450611e15565b8093505050505b919050565b505050565b505050565b611ee483836120cc565b611ef16000848484611f35565b611f30576040517f08c379a0000000000000000000000000000000000000000000000000000000008152600401611f2790612c02565b60405180910390fd5b505050565b6000611f568473ffffffffffffffffffffffffffffffffffffffff166122a6565b156120bf578373ffffffffffffffffffffffffffffffffffffffff1663150b7a02611f7f61152c565b8786866040518563ffffffff1660e01b8152600401611fa19493929190612b79565b602060405180830381600087803b158015611fbb57600080fd5b505af1925050508015611fec57506040513d601f19601f82011682018060405250810190611fe991906126c8565b60015b61206f573d806000811461201c576040519150601f19603f3d011682016040523d82523d6000602084013e612021565b606091505b50600081511415612067576040517f08c379a000000000000000000000000000000000000000000000000000000000815260040161205e90612c02565b60405180910390fd5b805181602001fd5b63150b7a0260e01b7bffffffffffffffffffffffffffffffffffffffffffffffffffffffff1916817bffffffffffffffffffffffffffffffffffffffffffffffffffffffff1916149150506120c4565b600190505b949350505050565b600073ffffffffffffffffffffffffffffffffffffffff168273ffffffffffffffffffffffffffffffffffffffff16141561213c576040517f08c379a000000000000000000000000000000000000000000000000000000000815260040161213390612d62565b60405180910390fd5b612145816114c0565b15612185576040517f08c379a000000000000000000000000000000000000000000000000000000000815260040161217c90612c62565b60405180910390fd5b61219160008383611ed0565b6001600360008473ffffffffffffffffffffffffffffffffffffffff1673ffffffffffffffffffffffffffffffffffffffff16815260200190815260200160002060008282546121e19190612f67565b92505081905550816002600083815260200190815260200160002060006101000a81548173ffffffffffffffffffffffffffffffffffffffff021916908373ffffffffffffffffffffffffffffffffffffffff160217905550808273ffffffffffffffffffffffffffffffffffffffff16600073ffffffffffffffffffffffffffffffffffffffff167fddf252ad1be2c89b69c2b068fc378daa952ba7f163c4a11628f55a4df523b3ef60405160405180910390a46122a260008383611ed5565b5050565b6000808273ffffffffffffffffffffffffffffffffffffffff163b119050919050565b8280546122d590613144565b90600052602060002090601f0160209004810192826122f7576000855561233e565b82601f1061231057805160ff191683800117855561233e565b8280016001018555821561233e579182015b8281111561233d578251825591602001919060010190612322565b5b50905061234b919061234f565b5090565b5b80821115612368576000816000905550600101612350565b5090565b600061237f61237a84612ec2565b612e9d565b90508281526020810184848401111561239757600080fd5b6123a2848285613102565b509392505050565b60006123bd6123b884612ef3565b612e9d565b9050828152602081018484840111156123d557600080fd5b6123e0848285613102565b509392505050565b6000813590506123f78161385c565b92915050565b60008135905061240c81613873565b92915050565b6000813590506124218161388a565b92915050565b600081359050612436816138a1565b92915050565b60008151905061244b816138a1565b92915050565b600082601f83011261246257600080fd5b813561247284826020860161236c565b91505092915050565b600082601f83011261248c57600080fd5b813561249c8482602086016123aa565b91505092915050565b6000813590506124b4816138b8565b92915050565b6000815190506124c9816138b8565b92915050565b6000602082840312156124e157600080fd5b60006124ef848285016123e8565b91505092915050565b60006020828403121561250a57600080fd5b6000612518848285016123fd565b91505092915050565b6000806040838503121561253457600080fd5b6000612542858286016123e8565b9250506020612553858286016123e8565b9150509250929050565b60008060006060848603121561257257600080fd5b6000612580868287016123e8565b9350506020612591868287016123e8565b92505060406125a2868287016124a5565b9150509250925092565b600080600080608085870312156125c257600080fd5b60006125d0878288016123e8565b94505060206125e1878288016123e8565b93505060406125f2878288016124a5565b925050606085013567ffffffffffffffff81111561260f57600080fd5b61261b87828801612451565b91505092959194509250565b6000806040838503121561263a57600080fd5b6000612648858286016123e8565b925050602061265985828601612412565b9150509250929050565b6000806040838503121561267657600080fd5b6000612684858286016123e8565b9250506020612695858286016124a5565b9150509250929050565b6000602082840312156126b157600080fd5b60006126bf84828501612427565b91505092915050565b6000602082840312156126da57600080fd5b60006126e88482850161243c565b91505092915050565b60006020828403121561270357600080fd5b600082013567ffffffffffffffff81111561271d57600080fd5b6127298482850161247b565b91505092915050565b60006020828403121561274457600080fd5b6000612752848285016124a5565b91505092915050565b60006020828403121561276d57600080fd5b600061277b848285016124ba565b91505092915050565b61278d8161308e565b82525050565b61279c8161307c565b82525050565b6127ab816130a0565b82525050565b60006127bc82612f24565b6127c68185612f3a565b93506127d6818560208601613111565b6127df816132dd565b840191505092915050565b60006127f582612f2f565b6127ff8185612f4b565b935061280f818560208601613111565b612818816132dd565b840191505092915050565b600061282e82612f2f565b6128388185612f5c565b9350612848818560208601613111565b80840191505092915050565b6000612861603283612f4b565b915061286c826132ee565b604082019050919050565b6000612884602683612f4b565b915061288f8261333d565b604082019050919050565b60006128a7602583612f4b565b91506128b28261338c565b604082019050919050565b60006128ca601c83612f4b565b91506128d5826133db565b602082019050919050565b60006128ed602483612f4b565b91506128f882613404565b604082019050919050565b6000612910601983612f4b565b915061291b82613453565b602082019050919050565b6000612933602e83612f4b565b915061293e8261347c565b604082019050919050565b6000612956602c83612f4b565b9150612961826134cb565b604082019050919050565b6000612979603883612f4b565b91506129848261351a565b604082019050919050565b600061299c602a83612f4b565b91506129a782613569565b604082019050919050565b60006129bf602983612f4b565b91506129ca826135b8565b604082019050919050565b60006129e2602083612f4b565b91506129ed82613607565b602082019050919050565b6000612a05602c83612f4b565b9150612a1082613630565b604082019050919050565b6000612a28602a83612f4b565b9150612a338261367f565b604082019050919050565b6000612a4b602083612f4b565b9150612a56826136ce565b602082019050919050565b6000612a6e602f83612f4b565b9150612a79826136f7565b604082019050919050565b6000612a91602183612f4b565b9150612a9c82613746565b604082019050919050565b6000612ab4603183612f4b565b9150612abf82613795565b604082019050919050565b6000612ad7601283612f4b565b9150612ae2826137e4565b602082019050919050565b6000612afa602f83612f4b565b9150612b058261380d565b604082019050919050565b612b19816130f8565b82525050565b6000612b2b8285612823565b9150612b378284612823565b91508190509392505050565b6000602082019050612b586000830184612793565b92915050565b6000602082019050612b736000830184612784565b92915050565b6000608082019050612b8e6000830187612793565b612b9b6020830186612793565b612ba86040830185612b10565b8181036060830152612bba81846127b1565b905095945050505050565b6000602082019050612bda60008301846127a2565b92915050565b60006020820190508181036000830152612bfa81846127ea565b905092915050565b60006020820190508181036000830152612c1b81612854565b9050919050565b60006020820190508181036000830152612c3b81612877565b9050919050565b60006020820190508181036000830152612c5b8161289a565b9050919050565b60006020820190508181036000830152612c7b816128bd565b9050919050565b60006020820190508181036000830152612c9b816128e0565b9050919050565b60006020820190508181036000830152612cbb81612903565b9050919050565b60006020820190508181036000830152612cdb81612926565b9050919050565b60006020820190508181036000830152612cfb81612949565b9050919050565b60006020820190508181036000830152612d1b8161296c565b9050919050565b60006020820190508181036000830152612d3b8161298f565b9050919050565b60006020820190508181036000830152612d5b816129b2565b9050919050565b60006020820190508181036000830152612d7b816129d5565b9050919050565b60006020820190508181036000830152612d9b816129f8565b9050919050565b60006020820190508181036000830152612dbb81612a1b565b9050919050565b60006020820190508181036000830152612ddb81612a3e565b9050919050565b60006020820190508181036000830152612dfb81612a61565b9050919050565b60006020820190508181036000830152612e1b81612a84565b9050919050565b60006020820190508181036000830152612e3b81612aa7565b9050919050565b60006020820190508181036000830152612e5b81612aca565b9050919050565b60006020820190508181036000830152612e7b81612aed565b9050919050565b6000602082019050612e976000830184612b10565b92915050565b6000612ea7612eb8565b9050612eb38282613176565b919050565b6000604051905090565b600067ffffffffffffffff821115612edd57612edc6132ae565b5b612ee6826132dd565b9050602081019050919050565b600067ffffffffffffffff821115612f0e57612f0d6132ae565b5b612f17826132dd565b9050602081019050919050565b600081519050919050565b600081519050919050565b600082825260208201905092915050565b600082825260208201905092915050565b600081905092915050565b6000612f72826130f8565b9150612f7d836130f8565b9250827fffffffffffffffffffffffffffffffffffffffffffffffffffffffffffffffff03821115612fb257612fb1613221565b5b828201905092915050565b6000612fc8826130f8565b9150612fd3836130f8565b925082612fe357612fe2613250565b5b828204905092915050565b6000612ff9826130f8565b9150613004836130f8565b9250817fffffffffffffffffffffffffffffffffffffffffffffffffffffffffffffffff048311821515161561303d5761303c613221565b5b828202905092915050565b6000613053826130f8565b915061305e836130f8565b92508282101561307157613070613221565b5b828203905092915050565b6000613087826130d8565b9050919050565b6000613099826130d8565b9050919050565b60008115159050919050565b60007fffffffff0000000000000000000000000000000000000000000000000000000082169050919050565b600073ffffffffffffffffffffffffffffffffffffffff82169050919050565b6000819050919050565b82818337600083830152505050565b60005b8381101561312f578082015181840152602081019050613114565b8381111561313e576000848401525b50505050565b6000600282049050600182168061315c57607f821691505b602082108114156131705761316f61327f565b5b50919050565b61317f826132dd565b810181811067ffffffffffffffff8211171561319e5761319d6132ae565b5b80604052505050565b60006131b2826130f8565b91507fffffffffffffffffffffffffffffffffffffffffffffffffffffffffffffffff8214156131e5576131e4613221565b5b600182019050919050565b60006131fb826130f8565b9150613206836130f8565b92508261321657613215613250565b5b828206905092915050565b7f4e487b7100000000000000000000000000000000000000000000000000000000600052601160045260246000fd5b7f4e487b7100000000000000000000000000000000000000000000000000000000600052601260045260246000fd5b7f4e487b7100000000000000000000000000000000000000000000000000000000600052602260045260246000fd5b7f4e487b7100000000000000000000000000000000000000000000000000000000600052604160045260246000fd5b6000601f19601f8301169050919050565b7f4552433732313a207472616e7366657220746f206e6f6e20455243373231526560008201527f63656976657220696d706c656d656e7465720000000000000000000000000000602082015250565b7f4f776e61626c653a206e6577206f776e657220697320746865207a65726f206160008201527f6464726573730000000000000000000000000000000000000000000000000000602082015250565b7f4552433732313a207472616e736665722066726f6d20696e636f72726563742060008201527f6f776e6572000000000000000000000000000000000000000000000000000000602082015250565b7f4552433732313a20746f6b656e20616c7265616479206d696e74656400000000600082015250565b7f4552433732313a207472616e7366657220746f20746865207a65726f2061646460008201527f7265737300000000000000000000000000000000000000000000000000000000602082015250565b7f4552433732313a20617070726f766520746f2063616c6c657200000000000000600082015250565b7f5472616e73616374696f6e2076616c756520646964206e6f7420657175616c2060008201527f746865206d696e74207072696365000000000000000000000000000000000000602082015250565b7f4552433732313a206f70657261746f7220717565727920666f72206e6f6e657860008201527f697374656e7420746f6b656e0000000000000000000000000000000000000000602082015250565b7f4552433732313a20617070726f76652063616c6c6572206973206e6f74206f7760008201527f6e6572206e6f7220617070726f76656420666f7220616c6c0000000000000000602082015250565b7f4552433732313a2062616c616e636520717565727920666f7220746865207a6560008201527f726f206164647265737300000000000000000000000000000000000000000000602082015250565b7f4552433732313a206f776e657220717565727920666f72206e6f6e657869737460008201527f656e7420746f6b656e0000000000000000000000000000000000000000000000602082015250565b7f4552433732313a206d696e7420746f20746865207a65726f2061646472657373600082015250565b7f4552433732313a20617070726f76656420717565727920666f72206e6f6e657860008201527f697374656e7420746f6b656e0000000000000000000000000000000000000000602082015250565b7f546865726520617265206e6f74204e46547320617661696c61626c652061742060008201527f7468617420707269636500000000000000000000000000000000000000000000602082015250565b7f4f776e61626c653a2063616c6c6572206973206e6f7420746865206f776e6572600082015250565b7f4552433732314d657461646174613a2055524920717565727920666f72206e6f60008201527f6e6578697374656e7420746f6b656e0000000000000000000000000000000000602082015250565b7f4552433732313a20617070726f76616c20746f2063757272656e74206f776e6560008201527f7200000000000000000000000000000000000000000000000000000000000000602082015250565b7f4552433732313a207472616e736665722063616c6c6572206973206e6f74206f60008201527f776e6572206e6f7220617070726f766564000000000000000000000000000000602082015250565b7f4d617820737570706c7920726561636865640000000000000000000000000000600082015250565b7f457863656564656420746865206d6178696d756d20616c6c6f776564204d696e60008201527f74696e67207065722077616c6c65740000000000000000000000000000000000602082015250565b6138658161307c565b811461387057600080fd5b50565b61387c8161308e565b811461388757600080fd5b50565b613893816130a0565b811461389e57600080fd5b50565b6138aa816130ac565b81146138b557600080fd5b50565b6138c1816130f8565b81146138cc57600080fd5b5056fea2646970667358221220e18aa26853931813465a2a9352151d2f280f919759671cd7285025d11ec2f28f64736f6c63430008010033608060405234801561001057600080fd5b5061002d61002261003260201b60201c565b61003a60201b60201c565b6100fe565b600033905090565b60008060009054906101000a900473ffffffffffffffffffffffffffffffffffffffff169050816000806101000a81548173ffffffffffffffffffffffffffffffffffffffff021916908373ffffffffffffffffffffffffffffffffffffffff1602179055508173ffffffffffffffffffffffffffffffffffffffff168173ffffffffffffffffffffffffffffffffffffffff167f8be0079c531659141344cd1fd0a4f28419497f9722a3daafe3b4186f6b6457e060405160405180910390a35050565b610bfc8061010d6000396000f3fe6080604052600436106100555760003560e01c806351cff8d91461005a578063715018a6146100835780638da5cb5b1461009a578063e3a9db1a146100c5578063f2fde38b14610102578063f340fa011461012b575b600080fd5b34801561006657600080fd5b50610081600480360381019061007c91906107f5565b610147565b005b34801561008f57600080fd5b506100986102c7565b005b3480156100a657600080fd5b506100af61034f565b6040516100bc9190610900565b60405180910390f35b3480156100d157600080fd5b506100ec60048036038101906100e791906107cc565b610378565b6040516100f9919061099b565b60405180910390f35b34801561010e57600080fd5b50610129600480360381019061012491906107cc565b6103c1565b005b610145600480360381019061014091906107cc565b6104b9565b005b61014f6105e2565b73ffffffffffffffffffffffffffffffffffffffff1661016d61034f565b73ffffffffffffffffffffffffffffffffffffffff16146101c3576040517f08c379a00000000000000000000000000000000000000000000000000000000081526004016101ba9061097b565b60405180910390fd5b6000600160008373ffffffffffffffffffffffffffffffffffffffff1673ffffffffffffffffffffffffffffffffffffffff1681526020019081526020016000205490506000600160008473ffffffffffffffffffffffffffffffffffffffff1673ffffffffffffffffffffffffffffffffffffffff16815260200190815260200160002081905550610275818373ffffffffffffffffffffffffffffffffffffffff166105ea90919063ffffffff16565b8173ffffffffffffffffffffffffffffffffffffffff167f7084f5476618d8e60b11ef0d7d3f06914655adb8793e28ff7f018d4c76d505d5826040516102bb919061099b565b60405180910390a25050565b6102cf6105e2565b73ffffffffffffffffffffffffffffffffffffffff166102ed61034f565b73ffffffffffffffffffffffffffffffffffffffff1614610343576040517f08c379a000000000000000000000000000000000000000000000000000000000815260040161033a9061097b565b60405180910390fd5b61034d60006106de565b565b60008060009054906101000a900473ffffffffffffffffffffffffffffffffffffffff16905090565b6000600160008373ffffffffffffffffffffffffffffffffffffffff1673ffffffffffffffffffffffffffffffffffffffff168152602001908152602001600020549050919050565b6103c96105e2565b73ffffffffffffffffffffffffffffffffffffffff166103e761034f565b73ffffffffffffffffffffffffffffffffffffffff161461043d576040517f08c379a00000000000000000000000000000000000000000000000000000000081526004016104349061097b565b60405180910390fd5b600073ffffffffffffffffffffffffffffffffffffffff168173ffffffffffffffffffffffffffffffffffffffff1614156104ad576040517f08c379a00000000000000000000000000000000000000000000000000000000081526004016104a49061091b565b60405180910390fd5b6104b6816106de565b50565b6104c16105e2565b73ffffffffffffffffffffffffffffffffffffffff166104df61034f565b73ffffffffffffffffffffffffffffffffffffffff1614610535576040517f08c379a000000000000000000000000000000000000000000000000000000000815260040161052c9061097b565b60405180910390fd5b600034905080600160008473ffffffffffffffffffffffffffffffffffffffff1673ffffffffffffffffffffffffffffffffffffffff168152602001908152602001600020600082825461058991906109d2565b925050819055508173ffffffffffffffffffffffffffffffffffffffff167f2da466a7b24304f47e87fa2e1e5a81b9831ce54fec19055ce277ca2f39ba42c4826040516105d6919061099b565b60405180910390a25050565b600033905090565b8047101561062d576040517f08c379a00000000000000000000000000000000000000000000000000000000081526004016106249061095b565b60405180910390fd5b60008273ffffffffffffffffffffffffffffffffffffffff1682604051610653906108eb565b60006040518083038185875af1925050503d8060008114610690576040519150601f19603f3d011682016040523d82523d6000602084013e610695565b606091505b50509050806106d9576040517f08c379a00000000000000000000000000000000000000000000000000000000081526004016106d09061093b565b60405180910390fd5b505050565b60008060009054906101000a900473ffffffffffffffffffffffffffffffffffffffff169050816000806101000a81548173ffffffffffffffffffffffffffffffffffffffff021916908373ffffffffffffffffffffffffffffffffffffffff1602179055508173ffffffffffffffffffffffffffffffffffffffff168173ffffffffffffffffffffffffffffffffffffffff167f8be0079c531659141344cd1fd0a4f28419497f9722a3daafe3b4186f6b6457e060405160405180910390a35050565b6000813590506107b181610b98565b92915050565b6000813590506107c681610baf565b92915050565b6000602082840312156107de57600080fd5b60006107ec848285016107a2565b91505092915050565b60006020828403121561080757600080fd5b6000610815848285016107b7565b91505092915050565b61082781610a28565b82525050565b600061083a6026836109c1565b915061084582610aa5565b604082019050919050565b600061085d603a836109c1565b915061086882610af4565b604082019050919050565b6000610880601d836109c1565b915061088b82610b43565b602082019050919050565b60006108a36020836109c1565b91506108ae82610b6c565b602082019050919050565b60006108c66000836109b6565b91506108d182610b95565b600082019050919050565b6108e581610a6c565b82525050565b60006108f6826108b9565b9150819050919050565b6000602082019050610915600083018461081e565b92915050565b600060208201905081810360008301526109348161082d565b9050919050565b6000602082019050818103600083015261095481610850565b9050919050565b6000602082019050818103600083015261097481610873565b9050919050565b6000602082019050818103600083015261099481610896565b9050919050565b60006020820190506109b060008301846108dc565b92915050565b600081905092915050565b600082825260208201905092915050565b60006109dd82610a6c565b91506109e883610a6c565b9250827fffffffffffffffffffffffffffffffffffffffffffffffffffffffffffffffff03821115610a1d57610a1c610a76565b5b828201905092915050565b6000610a3382610a4c565b9050919050565b6000610a4582610a4c565b9050919050565b600073ffffffffffffffffffffffffffffffffffffffff82169050919050565b6000819050919050565b7f4e487b7100000000000000000000000000000000000000000000000000000000600052601160045260246000fd5b7f4f776e61626c653a206e6577206f776e657220697320746865207a65726f206160008201527f6464726573730000000000000000000000000000000000000000000000000000602082015250565b7f416464726573733a20756e61626c6520746f2073656e642076616c75652c207260008201527f6563697069656e74206d61792068617665207265766572746564000000000000602082015250565b7f416464726573733a20696e73756666696369656e742062616c616e6365000000600082015250565b7f4f776e61626c653a2063616c6c6572206973206e6f7420746865206f776e6572600082015250565b50565b610ba181610a28565b8114610bac57600080fd5b50565b610bb881610a3a565b8114610bc357600080fd5b5056fea264697066735822122073b307195fd92b28f2600edbbb914776573abe0392628b3f8a5ee2d6ab956cfa64736f6c63430008010033",
  "linkReferences": {},
  "deployedLinkReferences": {}
}