{
  "_format": "hh-sol-artifact-1",
  "contractName": "NFT",
  "sourceName": "contracts/NFT.sol",
  "abi": [
    {
      "inputs": [],
      "stateMutability": "nonpayable",
      "type": "constructor"
    },
    {
      "anonymous": false,
      "inputs": [
        {
          "indexed": true,
          "internalType": "address",
          "name": "owner",
          "type": "address"
        },
        {
          "indexed": true,
          "internalType": "address",
          "name": "approved",
          "type": "address"
        },
        {
          "indexed": true,
          "internalType": "uint256",
          "name": "tokenId",
          "type": "uint256"
        }
      ],
      "name": "Approval",
      "type": "event"
    },
    {
      "anonymous": false,
      "inputs": [
        {
          "indexed": true,
          "internalType": "address",
          "name": "owner",
          "type": "address"
        },
        {
          "indexed": true,
          "internalType": "address",
          "name": "operator",
          "type": "address"
        },
        {
          "indexed": false,
          "internalType": "bool",
          "name": "approved",
          "type": "bool"
        }
      ],
      "name": "ApprovalForAll",
      "type": "event"
    },
    {
      "anonymous": false,
      "inputs": [
        {
          "indexed": true,
          "internalType": "address",
          "name": "previousOwner",
          "type": "address"
        },
        {
          "indexed": true,
          "internalType": "address",
          "name": "newOwner",
          "type": "address"
        }
      ],
      "name": "OwnershipTransferred",
      "type": "event"
    },
    {
      "anonymous": false,
      "inputs": [
        {
          "indexed": true,
          "internalType": "address",
          "name": "from",
          "type": "address"
        },
        {
          "indexed": true,
          "internalType": "address",
          "name": "to",
          "type": "address"
        },
        {
          "indexed": true,
          "internalType": "uint256",
          "name": "tokenId",
          "type": "uint256"
        }
      ],
      "name": "Transfer",
      "type": "event"
    },
    {
      "inputs": [],
      "name": "MINT_PRICE_1",
      "outputs": [
        {
          "internalType": "uint256",
          "name": "",
          "type": "uint256"
        }
      ],
      "stateMutability": "view",
      "type": "function"
    },
    {
      "inputs": [],
      "name": "MINT_PRICE_2",
      "outputs": [
        {
          "internalType": "uint256",
          "name": "",
          "type": "uint256"
        }
      ],
      "stateMutability": "view",
      "type": "function"
    },
    {
      "inputs": [],
      "name": "MINT_PRICE_3",
      "outputs": [
        {
          "internalType": "uint256",
          "name": "",
          "type": "uint256"
        }
      ],
      "stateMutability": "view",
      "type": "function"
    },
    {
      "inputs": [],
      "name": "TOTAL_SUPPLY",
      "outputs": [
        {
          "internalType": "uint256",
          "name": "",
          "type": "uint256"
        }
      ],
      "stateMutability": "view",
      "type": "function"
    },
    {
      "inputs": [
        {
          "internalType": "address",
          "name": "to",
          "type": "address"
        },
        {
          "internalType": "uint256",
          "name": "tokenId",
          "type": "uint256"
        }
      ],
      "name": "approve",
      "outputs": [],
      "stateMutability": "nonpayable",
      "type": "function"
    },
    {
      "inputs": [
        {
          "internalType": "address",
          "name": "owner",
          "type": "address"
        }
      ],
      "name": "balanceOf",
      "outputs": [
        {
          "internalType": "uint256",
          "name": "",
          "type": "uint256"
        }
      ],
      "stateMutability": "view",
      "type": "function"
    },
    {
      "inputs": [],
      "name": "baseTokenURI",
      "outputs": [
        {
          "internalType": "string",
          "name": "",
          "type": "string"
        }
      ],
      "stateMutability": "view",
      "type": "function"
    },
    {
      "inputs": [
        {
          "internalType": "uint256",
          "name": "tokenId",
          "type": "uint256"
        }
      ],
      "name": "getApproved",
      "outputs": [
        {
          "internalType": "address",
          "name": "",
          "type": "address"
        }
      ],
      "stateMutability": "view",
      "type": "function"
    },
    {
      "inputs": [
        {
          "internalType": "address",
          "name": "owner",
          "type": "address"
        },
        {
          "internalType": "address",
          "name": "operator",
          "type": "address"
        }
      ],
      "name": "isApprovedForAll",
      "outputs": [
        {
          "internalType": "bool",
          "name": "",
          "type": "bool"
        }
      ],
      "stateMutability": "view",
      "type": "function"
    },
    {
      "inputs": [
        {
          "internalType": "address",
          "name": "recipient",
          "type": "address"
        }
      ],
      "name": "mintTo",
      "outputs": [
        {
          "internalType": "uint256",
          "name": "",
          "type": "uint256"
        }
      ],
      "stateMutability": "payable",
      "type": "function"
    },
    {
      "inputs": [],
      "name": "name",
      "outputs": [
        {
          "internalType": "string",
          "name": "",
          "type": "string"
        }
      ],
      "stateMutability": "view",
      "type": "function"
    },
    {
      "inputs": [],
      "name": "owner",
      "outputs": [
        {
          "internalType": "address",
          "name": "",
          "type": "address"
        }
      ],
      "stateMutability": "view",
      "type": "function"
    },
    {
      "inputs": [
        {
          "internalType": "uint256",
          "name": "tokenId",
          "type": "uint256"
        }
      ],
      "name": "ownerOf",
      "outputs": [
        {
          "internalType": "address",
          "name": "",
          "type": "address"
        }
      ],
      "stateMutability": "view",
      "type": "function"
    },
    {
      "inputs": [
        {
          "internalType": "address",
          "name": "dest",
          "type": "address"
        }
      ],
      "name": "payments",
      "outputs": [
        {
          "internalType": "uint256",
          "name": "",
          "type": "uint256"
        }
      ],
      "stateMutability": "view",
      "type": "function"
    },
    {
      "inputs": [],
      "name": "renounceOwnership",
      "outputs": [],
      "stateMutability": "nonpayable",
      "type": "function"
    },
    {
      "inputs": [
        {
          "internalType": "address",
          "name": "from",
          "type": "address"
        },
        {
          "internalType": "address",
          "name": "to",
          "type": "address"
        },
        {
          "internalType": "uint256",
          "name": "tokenId",
          "type": "uint256"
        }
      ],
      "name": "safeTransferFrom",
      "outputs": [],
      "stateMutability": "nonpayable",
      "type": "function"
    },
    {
      "inputs": [
        {
          "internalType": "address",
          "name": "from",
          "type": "address"
        },
        {
          "internalType": "address",
          "name": "to",
          "type": "address"
        },
        {
          "internalType": "uint256",
          "name": "tokenId",
          "type": "uint256"
        },
        {
          "internalType": "bytes",
          "name": "_data",
          "type": "bytes"
        }
      ],
      "name": "safeTransferFrom",
      "outputs": [],
      "stateMutability": "nonpayable",
      "type": "function"
    },
    {
      "inputs": [
        {
          "internalType": "address",
          "name": "operator",
          "type": "address"
        },
        {
          "internalType": "bool",
          "name": "approved",
          "type": "bool"
        }
      ],
      "name": "setApprovalForAll",
      "outputs": [],
      "stateMutability": "nonpayable",
      "type": "function"
    },
    {
      "inputs": [
        {
          "internalType": "string",
          "name": "_baseTokenURI",
          "type": "string"
        }
      ],
      "name": "setBaseTokenURI",
      "outputs": [],
      "stateMutability": "nonpayable",
      "type": "function"
    },
    {
      "inputs": [
        {
          "internalType": "bytes4",
          "name": "interfaceId",
          "type": "bytes4"
        }
      ],
      "name": "supportsInterface",
      "outputs": [
        {
          "internalType": "bool",
          "name": "",
          "type": "bool"
        }
      ],
      "stateMutability": "view",
      "type": "function"
    },
    {
      "inputs": [],
      "name": "symbol",
      "outputs": [
        {
          "internalType": "string",
          "name": "",
          "type": "string"
        }
      ],
      "stateMutability": "view",
      "type": "function"
    },
    {
      "inputs": [
        {
          "internalType": "uint256",
          "name": "tokenId",
          "type": "uint256"
        }
      ],
      "name": "tokenURI",
      "outputs": [
        {
          "internalType": "string",
          "name": "",
          "type": "string"
        }
      ],
      "stateMutability": "view",
      "type": "function"
    },
    {
      "inputs": [
        {
          "internalType": "address",
          "name": "from",
          "type": "address"
        },
        {
          "internalType": "address",
          "name": "to",
          "type": "address"
        },
        {
          "internalType": "uint256",
          "name": "tokenId",
          "type": "uint256"
        }
      ],
      "name": "transferFrom",
      "outputs": [],
      "stateMutability": "nonpayable",
      "type": "function"
    },
    {
      "inputs": [
        {
          "internalType": "address",
          "name": "newOwner",
          "type": "address"
        }
      ],
      "name": "transferOwnership",
      "outputs": [],
      "stateMutability": "nonpayable",
      "type": "function"
    },
    {
      "inputs": [
        {
          "internalType": "address payable",
          "name": "payee",
          "type": "address"
        }
      ],
      "name": "withdrawPayments",
      "outputs": [],
      "stateMutability": "nonpayable",
      "type": "function"
    }
  ],
  "bytecode": "0x60a06040523480156200001157600080fd5b506040518060400160405280600a81526020017f33313350726f79656374000000000000000000000000000000000000000000008152506040518060400160405280600381526020017f4e4654000000000000000000000000000000000000000000000000000000000081525081600090805190602001906200009692919062000230565b508060019080519060200190620000af92919062000230565b505050604051620000c090620002c1565b604051809103906000f080158015620000dd573d6000803e3d6000fd5b5073ffffffffffffffffffffffffffffffffffffffff1660808173ffffffffffffffffffffffffffffffffffffffff1660601b8152505062000134620001286200016260201b60201c565b6200016a60201b60201c565b60405180602001604052806000815250600890805190602001906200015b92919062000230565b5062000353565b600033905090565b6000600660009054906101000a900473ffffffffffffffffffffffffffffffffffffffff16905081600660006101000a81548173ffffffffffffffffffffffffffffffffffffffff021916908373ffffffffffffffffffffffffffffffffffffffff1602179055508173ffffffffffffffffffffffffffffffffffffffff168173ffffffffffffffffffffffffffffffffffffffff167f8be0079c531659141344cd1fd0a4f28419497f9722a3daafe3b4186f6b6457e060405160405180910390a35050565b8280546200023e90620002ee565b90600052602060002090601f016020900481019282620002625760008555620002ae565b82601f106200027d57805160ff1916838001178555620002ae565b82800160010185558215620002ae579182015b82811115620002ad57825182559160200191906001019062000290565b5b509050620002bd9190620002cf565b5090565b610d098062003a8083390190565b5b80821115620002ea576000816000905550600101620002d0565b5090565b600060028204905060018216806200030757607f821691505b602082108114156200031e576200031d62000324565b5b50919050565b7f4e487b7100000000000000000000000000000000000000000000000000000000600052602260045260246000fd5b60805160601c61370762000379600039600081816110f4015261182201526137076000f3fe6080604052600436106101665760003560e01c8063755edd17116100d1578063c87b56dd1161008a578063e5002a5c11610064578063e5002a5c14610541578063e985e9c51461056c578063f2fde38b146105a9578063f42fe45d146105d257610166565b8063c87b56dd1461049c578063d547cfb7146104d9578063e2982c211461050457610166565b8063755edd17146103995780638da5cb5b146103c9578063902d55a5146103f457806395d89b411461041f578063a22cb4651461044a578063b88d4fde1461047357610166565b806331b3eb941161012357806331b3eb941461028b57806342842e0e146102b457806360003e86146102dd5780636352211e1461030857806370a0823114610345578063715018a61461038257610166565b806301ffc9a71461016b57806306fdde03146101a8578063081812fc146101d3578063095ea7b31461021057806323b872dd1461023957806330176e1314610262575b600080fd5b34801561017757600080fd5b50610192600480360381019061018d919061258d565b6105fd565b60405161019f9190612a90565b60405180910390f35b3480156101b457600080fd5b506101bd6106df565b6040516101ca9190612aab565b60405180910390f35b3480156101df57600080fd5b506101fa60048036038101906101f59190612620565b610771565b6040516102079190612a0e565b60405180910390f35b34801561021c57600080fd5b5061023760048036038101906102329190612551565b6107f6565b005b34801561024557600080fd5b50610260600480360381019061025b919061244b565b61090e565b005b34801561026e57600080fd5b50610289600480360381019061028491906125df565b61096e565b005b34801561029757600080fd5b506102b260048036038101906102ad91906123e6565b610a04565b005b3480156102c057600080fd5b506102db60048036038101906102d6919061244b565b610a8c565b005b3480156102e957600080fd5b506102f2610aac565b6040516102ff9190612d2d565b60405180910390f35b34801561031457600080fd5b5061032f600480360381019061032a9190612620565b610ab1565b60405161033c9190612a0e565b60405180910390f35b34801561035157600080fd5b5061036c600480360381019061036791906123bd565b610b63565b6040516103799190612d2d565b60405180910390f35b34801561038e57600080fd5b50610397610c1b565b005b6103b360048036038101906103ae91906123bd565b610ca3565b6040516103c09190612d2d565b60405180910390f35b3480156103d557600080fd5b506103de610e81565b6040516103eb9190612a0e565b60405180910390f35b34801561040057600080fd5b50610409610eab565b6040516104169190612d2d565b60405180910390f35b34801561042b57600080fd5b50610434610eb1565b6040516104419190612aab565b60405180910390f35b34801561045657600080fd5b50610471600480360381019061046c9190612515565b610f43565b005b34801561047f57600080fd5b5061049a6004803603810190610495919061249a565b610f59565b005b3480156104a857600080fd5b506104c360048036038101906104be9190612620565b610fbb565b6040516104d09190612aab565b60405180910390f35b3480156104e557600080fd5b506104ee611062565b6040516104fb9190612aab565b60405180910390f35b34801561051057600080fd5b5061052b600480360381019061052691906123bd565b6110f0565b6040516105389190612d2d565b60405180910390f35b34801561054d57600080fd5b506105566111a2565b6040516105639190612d2d565b60405180910390f35b34801561057857600080fd5b50610593600480360381019061058e919061240f565b6111ad565b6040516105a09190612a90565b60405180910390f35b3480156105b557600080fd5b506105d060048036038101906105cb91906123bd565b611241565b005b3480156105de57600080fd5b506105e7611339565b6040516105f49190612d2d565b60405180910390f35b60007f80ac58cd000000000000000000000000000000000000000000000000000000007bffffffffffffffffffffffffffffffffffffffffffffffffffffffff1916827bffffffffffffffffffffffffffffffffffffffffffffffffffffffff191614806106c857507f5b5e139f000000000000000000000000000000000000000000000000000000007bffffffffffffffffffffffffffffffffffffffffffffffffffffffff1916827bffffffffffffffffffffffffffffffffffffffffffffffffffffffff1916145b806106d857506106d782611344565b5b9050919050565b6060600080546106ee90612f95565b80601f016020809104026020016040519081016040528092919081815260200182805461071a90612f95565b80156107675780601f1061073c57610100808354040283529160200191610767565b820191906000526020600020905b81548152906001019060200180831161074a57829003601f168201915b5050505050905090565b600061077c826113ae565b6107bb576040517f08c379a00000000000000000000000000000000000000000000000000000000081526004016107b290612c4d565b60405180910390fd5b6004600083815260200190815260200160002060009054906101000a900473ffffffffffffffffffffffffffffffffffffffff169050919050565b600061080182610ab1565b90508073ffffffffffffffffffffffffffffffffffffffff168373ffffffffffffffffffffffffffffffffffffffff161415610872576040517f08c379a000000000000000000000000000000000000000000000000000000000815260040161086990612cad565b60405180910390fd5b8073ffffffffffffffffffffffffffffffffffffffff1661089161141a565b73ffffffffffffffffffffffffffffffffffffffff1614806108c057506108bf816108ba61141a565b6111ad565b5b6108ff576040517f08c379a00000000000000000000000000000000000000000000000000000000081526004016108f690612bcd565b60405180910390fd5b6109098383611422565b505050565b61091f61091961141a565b826114db565b61095e576040517f08c379a000000000000000000000000000000000000000000000000000000000815260040161095590612ccd565b60405180910390fd5b6109698383836115b9565b505050565b61097661141a565b73ffffffffffffffffffffffffffffffffffffffff16610994610e81565b73ffffffffffffffffffffffffffffffffffffffff16146109ea576040517f08c379a00000000000000000000000000000000000000000000000000000000081526004016109e190612c6d565b60405180910390fd5b8060089080519060200190610a009291906121b7565b5050565b610a0c61141a565b73ffffffffffffffffffffffffffffffffffffffff16610a2a610e81565b73ffffffffffffffffffffffffffffffffffffffff1614610a80576040517f08c379a0000000000000000000000000000000000000000000000000000000008152600401610a7790612c6d565b60405180910390fd5b610a8981611820565b50565b610aa783838360405180602001604052806000815250610f59565b505050565b600081565b6000806002600084815260200190815260200160002060009054906101000a900473ffffffffffffffffffffffffffffffffffffffff169050600073ffffffffffffffffffffffffffffffffffffffff168173ffffffffffffffffffffffffffffffffffffffff161415610b5a576040517f08c379a0000000000000000000000000000000000000000000000000000000008152600401610b5190612c0d565b60405180910390fd5b80915050919050565b60008073ffffffffffffffffffffffffffffffffffffffff168273ffffffffffffffffffffffffffffffffffffffff161415610bd4576040517f08c379a0000000000000000000000000000000000000000000000000000000008152600401610bcb90612bed565b60405180910390fd5b600360008373ffffffffffffffffffffffffffffffffffffffff1673ffffffffffffffffffffffffffffffffffffffff168152602001908152602001600020549050919050565b610c2361141a565b73ffffffffffffffffffffffffffffffffffffffff16610c41610e81565b73ffffffffffffffffffffffffffffffffffffffff1614610c97576040517f08c379a0000000000000000000000000000000000000000000000000000000008152600401610c8e90612c6d565b60405180910390fd5b610ca160006118ae565b565b600080610cb06007611974565b9050611e618110610cf6576040517f08c379a0000000000000000000000000000000000000000000000000000000008152600401610ced90612ced565b60405180910390fd5b60008110158015610d075750600581105b15610d545760003414610d4f576040517f08c379a0000000000000000000000000000000000000000000000000000000008152600401610d4690612b8d565b60405180910390fd5b610e03565b60058110158015610d655750600a81105b15610db857666f332f257840003414610db3576040517f08c379a0000000000000000000000000000000000000000000000000000000008152600401610daa90612b8d565b60405180910390fd5b610e02565b66d529ae9e8600003414610e01576040517f08c379a0000000000000000000000000000000000000000000000000000000008152600401610df890612b8d565b60405180910390fd5b5b5b6000610e0e84610b63565b9050600a811115610e54576040517f08c379a0000000000000000000000000000000000000000000000000000000008152600401610e4b90612d0d565b60405180910390fd5b610e5e6007611982565b6000610e6a6007611974565b9050610e768582611998565b809350505050919050565b6000600660009054906101000a900473ffffffffffffffffffffffffffffffffffffffff16905090565b611e6181565b606060018054610ec090612f95565b80601f0160208091040260200160405190810160405280929190818152602001828054610eec90612f95565b8015610f395780601f10610f0e57610100808354040283529160200191610f39565b820191906000526020600020905b815481529060010190602001808311610f1c57829003601f168201915b5050505050905090565b610f55610f4e61141a565b83836119b6565b5050565b610f6a610f6461141a565b836114db565b610fa9576040517f08c379a0000000000000000000000000000000000000000000000000000000008152600401610fa090612ccd565b60405180910390fd5b610fb584848484611b23565b50505050565b6060610fc6826113ae565b611005576040517f08c379a0000000000000000000000000000000000000000000000000000000008152600401610ffc90612c8d565b60405180910390fd5b600061100f611b7f565b9050600081511161102f576040518060200160405280600081525061105a565b8061103984611c11565b60405160200161104a9291906129ea565b6040516020818303038152906040525b915050919050565b6008805461106f90612f95565b80601f016020809104026020016040519081016040528092919081815260200182805461109b90612f95565b80156110e85780601f106110bd576101008083540402835291602001916110e8565b820191906000526020600020905b8154815290600101906020018083116110cb57829003601f168201915b505050505081565b60007f000000000000000000000000000000000000000000000000000000000000000073ffffffffffffffffffffffffffffffffffffffff1663e3a9db1a836040518263ffffffff1660e01b815260040161114b9190612a0e565b60206040518083038186803b15801561116357600080fd5b505afa158015611177573d6000803e3d6000fd5b505050506040513d601f19601f8201168201806040525081019061119b9190612649565b9050919050565b66d529ae9e86000081565b6000600560008473ffffffffffffffffffffffffffffffffffffffff1673ffffffffffffffffffffffffffffffffffffffff16815260200190815260200160002060008373ffffffffffffffffffffffffffffffffffffffff1673ffffffffffffffffffffffffffffffffffffffff16815260200190815260200160002060009054906101000a900460ff16905092915050565b61124961141a565b73ffffffffffffffffffffffffffffffffffffffff16611267610e81565b73ffffffffffffffffffffffffffffffffffffffff16146112bd576040517f08c379a00000000000000000000000000000000000000000000000000000000081526004016112b490612c6d565b60405180910390fd5b600073ffffffffffffffffffffffffffffffffffffffff168173ffffffffffffffffffffffffffffffffffffffff16141561132d576040517f08c379a000000000000000000000000000000000000000000000000000000000815260040161132490612aed565b60405180910390fd5b611336816118ae565b50565b666f332f2578400081565b60007f01ffc9a7000000000000000000000000000000000000000000000000000000007bffffffffffffffffffffffffffffffffffffffffffffffffffffffff1916827bffffffffffffffffffffffffffffffffffffffffffffffffffffffff1916149050919050565b60008073ffffffffffffffffffffffffffffffffffffffff166002600084815260200190815260200160002060009054906101000a900473ffffffffffffffffffffffffffffffffffffffff1673ffffffffffffffffffffffffffffffffffffffff1614159050919050565b600033905090565b816004600083815260200190815260200160002060006101000a81548173ffffffffffffffffffffffffffffffffffffffff021916908373ffffffffffffffffffffffffffffffffffffffff160217905550808273ffffffffffffffffffffffffffffffffffffffff1661149583610ab1565b73ffffffffffffffffffffffffffffffffffffffff167f8c5be1e5ebec7d5bd14f71427d1e84f3dd0314c0f7b2291e5b200ac8c7c3b92560405160405180910390a45050565b60006114e6826113ae565b611525576040517f08c379a000000000000000000000000000000000000000000000000000000000815260040161151c90612bad565b60405180910390fd5b600061153083610ab1565b90508073ffffffffffffffffffffffffffffffffffffffff168473ffffffffffffffffffffffffffffffffffffffff16148061159f57508373ffffffffffffffffffffffffffffffffffffffff1661158784610771565b73ffffffffffffffffffffffffffffffffffffffff16145b806115b057506115af81856111ad565b5b91505092915050565b8273ffffffffffffffffffffffffffffffffffffffff166115d982610ab1565b73ffffffffffffffffffffffffffffffffffffffff161461162f576040517f08c379a000000000000000000000000000000000000000000000000000000000815260040161162690612b0d565b60405180910390fd5b600073ffffffffffffffffffffffffffffffffffffffff168273ffffffffffffffffffffffffffffffffffffffff16141561169f576040517f08c379a000000000000000000000000000000000000000000000000000000000815260040161169690612b4d565b60405180910390fd5b6116aa838383611dbe565b6116b5600082611422565b6001600360008573ffffffffffffffffffffffffffffffffffffffff1673ffffffffffffffffffffffffffffffffffffffff16815260200190815260200160002060008282546117059190612e99565b925050819055506001600360008473ffffffffffffffffffffffffffffffffffffffff1673ffffffffffffffffffffffffffffffffffffffff168152602001908152602001600020600082825461175c9190612e12565b92505081905550816002600083815260200190815260200160002060006101000a81548173ffffffffffffffffffffffffffffffffffffffff021916908373ffffffffffffffffffffffffffffffffffffffff160217905550808273ffffffffffffffffffffffffffffffffffffffff168473ffffffffffffffffffffffffffffffffffffffff167fddf252ad1be2c89b69c2b068fc378daa952ba7f163c4a11628f55a4df523b3ef60405160405180910390a461181b838383611dc3565b505050565b7f000000000000000000000000000000000000000000000000000000000000000073ffffffffffffffffffffffffffffffffffffffff166351cff8d9826040518263ffffffff1660e01b81526004016118799190612a29565b600060405180830381600087803b15801561189357600080fd5b505af11580156118a7573d6000803e3d6000fd5b5050505050565b6000600660009054906101000a900473ffffffffffffffffffffffffffffffffffffffff16905081600660006101000a81548173ffffffffffffffffffffffffffffffffffffffff021916908373ffffffffffffffffffffffffffffffffffffffff1602179055508173ffffffffffffffffffffffffffffffffffffffff168173ffffffffffffffffffffffffffffffffffffffff167f8be0079c531659141344cd1fd0a4f28419497f9722a3daafe3b4186f6b6457e060405160405180910390a35050565b600081600001549050919050565b6001816000016000828254019250508190555050565b6119b2828260405180602001604052806000815250611dc8565b5050565b8173ffffffffffffffffffffffffffffffffffffffff168373ffffffffffffffffffffffffffffffffffffffff161415611a25576040517f08c379a0000000000000000000000000000000000000000000000000000000008152600401611a1c90612b6d565b60405180910390fd5b80600560008573ffffffffffffffffffffffffffffffffffffffff1673ffffffffffffffffffffffffffffffffffffffff16815260200190815260200160002060008473ffffffffffffffffffffffffffffffffffffffff1673ffffffffffffffffffffffffffffffffffffffff16815260200190815260200160002060006101000a81548160ff0219169083151502179055508173ffffffffffffffffffffffffffffffffffffffff168373ffffffffffffffffffffffffffffffffffffffff167f17307eab39ab6107e8899845ad3d59bd9653f200f220920489ca2b5937696c3183604051611b169190612a90565b60405180910390a3505050565b611b2e8484846115b9565b611b3a84848484611e23565b611b79576040517f08c379a0000000000000000000000000000000000000000000000000000000008152600401611b7090612acd565b60405180910390fd5b50505050565b606060088054611b8e90612f95565b80601f0160208091040260200160405190810160405280929190818152602001828054611bba90612f95565b8015611c075780601f10611bdc57610100808354040283529160200191611c07565b820191906000526020600020905b815481529060010190602001808311611bea57829003601f168201915b5050505050905090565b60606000821415611c59576040518060400160405280600181526020017f30000000000000000000000000000000000000000000000000000000000000008152509050611db9565b600082905060005b60008214611c8b578080611c7490612ff8565b915050600a82611c849190612e68565b9150611c61565b60008167ffffffffffffffff811115611ccd577f4e487b7100000000000000000000000000000000000000000000000000000000600052604160045260246000fd5b6040519080825280601f01601f191660200182016040528015611cff5781602001600182028036833780820191505090505b5090505b60008514611db257600182611d189190612e99565b9150600a85611d279190613041565b6030611d339190612e12565b60f81b818381518110611d6f577f4e487b7100000000000000000000000000000000000000000000000000000000600052603260045260246000fd5b60200101907effffffffffffffffffffffffffffffffffffffffffffffffffffffffffffff1916908160001a905350600a85611dab9190612e68565b9450611d03565b8093505050505b919050565b505050565b505050565b611dd28383611fba565b611ddf6000848484611e23565b611e1e576040517f08c379a0000000000000000000000000000000000000000000000000000000008152600401611e1590612acd565b60405180910390fd5b505050565b6000611e448473ffffffffffffffffffffffffffffffffffffffff16612194565b15611fad578373ffffffffffffffffffffffffffffffffffffffff1663150b7a02611e6d61141a565b8786866040518563ffffffff1660e01b8152600401611e8f9493929190612a44565b602060405180830381600087803b158015611ea957600080fd5b505af1925050508015611eda57506040513d601f19601f82011682018060405250810190611ed791906125b6565b60015b611f5d573d8060008114611f0a576040519150601f19603f3d011682016040523d82523d6000602084013e611f0f565b606091505b50600081511415611f55576040517f08c379a0000000000000000000000000000000000000000000000000000000008152600401611f4c90612acd565b60405180910390fd5b805181602001fd5b63150b7a0260e01b7bffffffffffffffffffffffffffffffffffffffffffffffffffffffff1916817bffffffffffffffffffffffffffffffffffffffffffffffffffffffff191614915050611fb2565b600190505b949350505050565b600073ffffffffffffffffffffffffffffffffffffffff168273ffffffffffffffffffffffffffffffffffffffff16141561202a576040517f08c379a000000000000000000000000000000000000000000000000000000000815260040161202190612c2d565b60405180910390fd5b612033816113ae565b15612073576040517f08c379a000000000000000000000000000000000000000000000000000000000815260040161206a90612b2d565b60405180910390fd5b61207f60008383611dbe565b6001600360008473ffffffffffffffffffffffffffffffffffffffff1673ffffffffffffffffffffffffffffffffffffffff16815260200190815260200160002060008282546120cf9190612e12565b92505081905550816002600083815260200190815260200160002060006101000a81548173ffffffffffffffffffffffffffffffffffffffff021916908373ffffffffffffffffffffffffffffffffffffffff160217905550808273ffffffffffffffffffffffffffffffffffffffff16600073ffffffffffffffffffffffffffffffffffffffff167fddf252ad1be2c89b69c2b068fc378daa952ba7f163c4a11628f55a4df523b3ef60405160405180910390a461219060008383611dc3565b5050565b6000808273ffffffffffffffffffffffffffffffffffffffff163b119050919050565b8280546121c390612f95565b90600052602060002090601f0160209004810192826121e5576000855561222c565b82601f106121fe57805160ff191683800117855561222c565b8280016001018555821561222c579182015b8281111561222b578251825591602001919060010190612210565b5b509050612239919061223d565b5090565b5b8082111561225657600081600090555060010161223e565b5090565b600061226d61226884612d6d565b612d48565b90508281526020810184848401111561228557600080fd5b612290848285612f53565b509392505050565b60006122ab6122a684612d9e565b612d48565b9050828152602081018484840111156122c357600080fd5b6122ce848285612f53565b509392505050565b6000813590506122e58161365e565b92915050565b6000813590506122fa81613675565b92915050565b60008135905061230f8161368c565b92915050565b600081359050612324816136a3565b92915050565b600081519050612339816136a3565b92915050565b600082601f83011261235057600080fd5b813561236084826020860161225a565b91505092915050565b600082601f83011261237a57600080fd5b813561238a848260208601612298565b91505092915050565b6000813590506123a2816136ba565b92915050565b6000815190506123b7816136ba565b92915050565b6000602082840312156123cf57600080fd5b60006123dd848285016122d6565b91505092915050565b6000602082840312156123f857600080fd5b6000612406848285016122eb565b91505092915050565b6000806040838503121561242257600080fd5b6000612430858286016122d6565b9250506020612441858286016122d6565b9150509250929050565b60008060006060848603121561246057600080fd5b600061246e868287016122d6565b935050602061247f868287016122d6565b925050604061249086828701612393565b9150509250925092565b600080600080608085870312156124b057600080fd5b60006124be878288016122d6565b94505060206124cf878288016122d6565b93505060406124e087828801612393565b925050606085013567ffffffffffffffff8111156124fd57600080fd5b6125098782880161233f565b91505092959194509250565b6000806040838503121561252857600080fd5b6000612536858286016122d6565b925050602061254785828601612300565b9150509250929050565b6000806040838503121561256457600080fd5b6000612572858286016122d6565b925050602061258385828601612393565b9150509250929050565b60006020828403121561259f57600080fd5b60006125ad84828501612315565b91505092915050565b6000602082840312156125c857600080fd5b60006125d68482850161232a565b91505092915050565b6000602082840312156125f157600080fd5b600082013567ffffffffffffffff81111561260b57600080fd5b61261784828501612369565b91505092915050565b60006020828403121561263257600080fd5b600061264084828501612393565b91505092915050565b60006020828403121561265b57600080fd5b6000612669848285016123a8565b91505092915050565b61267b81612edf565b82525050565b61268a81612ecd565b82525050565b61269981612ef1565b82525050565b60006126aa82612dcf565b6126b48185612de5565b93506126c4818560208601612f62565b6126cd8161312e565b840191505092915050565b60006126e382612dda565b6126ed8185612df6565b93506126fd818560208601612f62565b6127068161312e565b840191505092915050565b600061271c82612dda565b6127268185612e07565b9350612736818560208601612f62565b80840191505092915050565b600061274f603283612df6565b915061275a8261313f565b604082019050919050565b6000612772602683612df6565b915061277d8261318e565b604082019050919050565b6000612795602583612df6565b91506127a0826131dd565b604082019050919050565b60006127b8601c83612df6565b91506127c38261322c565b602082019050919050565b60006127db602483612df6565b91506127e682613255565b604082019050919050565b60006127fe601983612df6565b9150612809826132a4565b602082019050919050565b6000612821602e83612df6565b915061282c826132cd565b604082019050919050565b6000612844602c83612df6565b915061284f8261331c565b604082019050919050565b6000612867603883612df6565b91506128728261336b565b604082019050919050565b600061288a602a83612df6565b9150612895826133ba565b604082019050919050565b60006128ad602983612df6565b91506128b882613409565b604082019050919050565b60006128d0602083612df6565b91506128db82613458565b602082019050919050565b60006128f3602c83612df6565b91506128fe82613481565b604082019050919050565b6000612916602083612df6565b9150612921826134d0565b602082019050919050565b6000612939602f83612df6565b9150612944826134f9565b604082019050919050565b600061295c602183612df6565b915061296782613548565b604082019050919050565b600061297f603183612df6565b915061298a82613597565b604082019050919050565b60006129a2601283612df6565b91506129ad826135e6565b602082019050919050565b60006129c5602f83612df6565b91506129d08261360f565b604082019050919050565b6129e481612f49565b82525050565b60006129f68285612711565b9150612a028284612711565b91508190509392505050565b6000602082019050612a236000830184612681565b92915050565b6000602082019050612a3e6000830184612672565b92915050565b6000608082019050612a596000830187612681565b612a666020830186612681565b612a7360408301856129db565b8181036060830152612a85818461269f565b905095945050505050565b6000602082019050612aa56000830184612690565b92915050565b60006020820190508181036000830152612ac581846126d8565b905092915050565b60006020820190508181036000830152612ae681612742565b9050919050565b60006020820190508181036000830152612b0681612765565b9050919050565b60006020820190508181036000830152612b2681612788565b9050919050565b60006020820190508181036000830152612b46816127ab565b9050919050565b60006020820190508181036000830152612b66816127ce565b9050919050565b60006020820190508181036000830152612b86816127f1565b9050919050565b60006020820190508181036000830152612ba681612814565b9050919050565b60006020820190508181036000830152612bc681612837565b9050919050565b60006020820190508181036000830152612be68161285a565b9050919050565b60006020820190508181036000830152612c068161287d565b9050919050565b60006020820190508181036000830152612c26816128a0565b9050919050565b60006020820190508181036000830152612c46816128c3565b9050919050565b60006020820190508181036000830152612c66816128e6565b9050919050565b60006020820190508181036000830152612c8681612909565b9050919050565b60006020820190508181036000830152612ca68161292c565b9050919050565b60006020820190508181036000830152612cc68161294f565b9050919050565b60006020820190508181036000830152612ce681612972565b9050919050565b60006020820190508181036000830152612d0681612995565b9050919050565b60006020820190508181036000830152612d26816129b8565b9050919050565b6000602082019050612d4260008301846129db565b92915050565b6000612d52612d63565b9050612d5e8282612fc7565b919050565b6000604051905090565b600067ffffffffffffffff821115612d8857612d876130ff565b5b612d918261312e565b9050602081019050919050565b600067ffffffffffffffff821115612db957612db86130ff565b5b612dc28261312e565b9050602081019050919050565b600081519050919050565b600081519050919050565b600082825260208201905092915050565b600082825260208201905092915050565b600081905092915050565b6000612e1d82612f49565b9150612e2883612f49565b9250827fffffffffffffffffffffffffffffffffffffffffffffffffffffffffffffffff03821115612e5d57612e5c613072565b5b828201905092915050565b6000612e7382612f49565b9150612e7e83612f49565b925082612e8e57612e8d6130a1565b5b828204905092915050565b6000612ea482612f49565b9150612eaf83612f49565b925082821015612ec257612ec1613072565b5b828203905092915050565b6000612ed882612f29565b9050919050565b6000612eea82612f29565b9050919050565b60008115159050919050565b60007fffffffff0000000000000000000000000000000000000000000000000000000082169050919050565b600073ffffffffffffffffffffffffffffffffffffffff82169050919050565b6000819050919050565b82818337600083830152505050565b60005b83811015612f80578082015181840152602081019050612f65565b83811115612f8f576000848401525b50505050565b60006002820490506001821680612fad57607f821691505b60208210811415612fc157612fc06130d0565b5b50919050565b612fd08261312e565b810181811067ffffffffffffffff82111715612fef57612fee6130ff565b5b80604052505050565b600061300382612f49565b91507fffffffffffffffffffffffffffffffffffffffffffffffffffffffffffffffff82141561303657613035613072565b5b600182019050919050565b600061304c82612f49565b915061305783612f49565b925082613067576130666130a1565b5b828206905092915050565b7f4e487b7100000000000000000000000000000000000000000000000000000000600052601160045260246000fd5b7f4e487b7100000000000000000000000000000000000000000000000000000000600052601260045260246000fd5b7f4e487b7100000000000000000000000000000000000000000000000000000000600052602260045260246000fd5b7f4e487b7100000000000000000000000000000000000000000000000000000000600052604160045260246000fd5b6000601f19601f8301169050919050565b7f4552433732313a207472616e7366657220746f206e6f6e20455243373231526560008201527f63656976657220696d706c656d656e7465720000000000000000000000000000602082015250565b7f4f776e61626c653a206e6577206f776e657220697320746865207a65726f206160008201527f6464726573730000000000000000000000000000000000000000000000000000602082015250565b7f4552433732313a207472616e736665722066726f6d20696e636f72726563742060008201527f6f776e6572000000000000000000000000000000000000000000000000000000602082015250565b7f4552433732313a20746f6b656e20616c7265616479206d696e74656400000000600082015250565b7f4552433732313a207472616e7366657220746f20746865207a65726f2061646460008201527f7265737300000000000000000000000000000000000000000000000000000000602082015250565b7f4552433732313a20617070726f766520746f2063616c6c657200000000000000600082015250565b7f5472616e73616374696f6e2076616c756520646964206e6f7420657175616c2060008201527f746865206d696e74207072696365000000000000000000000000000000000000602082015250565b7f4552433732313a206f70657261746f7220717565727920666f72206e6f6e657860008201527f697374656e7420746f6b656e0000000000000000000000000000000000000000602082015250565b7f4552433732313a20617070726f76652063616c6c6572206973206e6f74206f7760008201527f6e6572206e6f7220617070726f76656420666f7220616c6c0000000000000000602082015250565b7f4552433732313a2062616c616e636520717565727920666f7220746865207a6560008201527f726f206164647265737300000000000000000000000000000000000000000000602082015250565b7f4552433732313a206f776e657220717565727920666f72206e6f6e657869737460008201527f656e7420746f6b656e0000000000000000000000000000000000000000000000602082015250565b7f4552433732313a206d696e7420746f20746865207a65726f2061646472657373600082015250565b7f4552433732313a20617070726f76656420717565727920666f72206e6f6e657860008201527f697374656e7420746f6b656e0000000000000000000000000000000000000000602082015250565b7f4f776e61626c653a2063616c6c6572206973206e6f7420746865206f776e6572600082015250565b7f4552433732314d657461646174613a2055524920717565727920666f72206e6f60008201527f6e6578697374656e7420746f6b656e0000000000000000000000000000000000602082015250565b7f4552433732313a20617070726f76616c20746f2063757272656e74206f776e6560008201527f7200000000000000000000000000000000000000000000000000000000000000602082015250565b7f4552433732313a207472616e736665722063616c6c6572206973206e6f74206f60008201527f776e6572206e6f7220617070726f766564000000000000000000000000000000602082015250565b7f4d617820737570706c7920726561636865640000000000000000000000000000600082015250565b7f457863656564656420746865206d6178696d756d20616c6c6f776564204d696e60008201527f74696e67207065722077616c6c65740000000000000000000000000000000000602082015250565b61366781612ecd565b811461367257600080fd5b50565b61367e81612edf565b811461368957600080fd5b50565b61369581612ef1565b81146136a057600080fd5b50565b6136ac81612efd565b81146136b757600080fd5b50565b6136c381612f49565b81146136ce57600080fd5b5056fea264697066735822122015c45f9354b9a931b4f75579ddeb784897f3ce47e30f87072a1d3c407868e64564736f6c63430008010033608060405234801561001057600080fd5b5061002d61002261003260201b60201c565b61003a60201b60201c565b6100fe565b600033905090565b60008060009054906101000a900473ffffffffffffffffffffffffffffffffffffffff169050816000806101000a81548173ffffffffffffffffffffffffffffffffffffffff021916908373ffffffffffffffffffffffffffffffffffffffff1602179055508173ffffffffffffffffffffffffffffffffffffffff168173ffffffffffffffffffffffffffffffffffffffff167f8be0079c531659141344cd1fd0a4f28419497f9722a3daafe3b4186f6b6457e060405160405180910390a35050565b610bfc8061010d6000396000f3fe6080604052600436106100555760003560e01c806351cff8d91461005a578063715018a6146100835780638da5cb5b1461009a578063e3a9db1a146100c5578063f2fde38b14610102578063f340fa011461012b575b600080fd5b34801561006657600080fd5b50610081600480360381019061007c91906107f5565b610147565b005b34801561008f57600080fd5b506100986102c7565b005b3480156100a657600080fd5b506100af61034f565b6040516100bc9190610900565b60405180910390f35b3480156100d157600080fd5b506100ec60048036038101906100e791906107cc565b610378565b6040516100f9919061099b565b60405180910390f35b34801561010e57600080fd5b50610129600480360381019061012491906107cc565b6103c1565b005b610145600480360381019061014091906107cc565b6104b9565b005b61014f6105e2565b73ffffffffffffffffffffffffffffffffffffffff1661016d61034f565b73ffffffffffffffffffffffffffffffffffffffff16146101c3576040517f08c379a00000000000000000000000000000000000000000000000000000000081526004016101ba9061097b565b60405180910390fd5b6000600160008373ffffffffffffffffffffffffffffffffffffffff1673ffffffffffffffffffffffffffffffffffffffff1681526020019081526020016000205490506000600160008473ffffffffffffffffffffffffffffffffffffffff1673ffffffffffffffffffffffffffffffffffffffff16815260200190815260200160002081905550610275818373ffffffffffffffffffffffffffffffffffffffff166105ea90919063ffffffff16565b8173ffffffffffffffffffffffffffffffffffffffff167f7084f5476618d8e60b11ef0d7d3f06914655adb8793e28ff7f018d4c76d505d5826040516102bb919061099b565b60405180910390a25050565b6102cf6105e2565b73ffffffffffffffffffffffffffffffffffffffff166102ed61034f565b73ffffffffffffffffffffffffffffffffffffffff1614610343576040517f08c379a000000000000000000000000000000000000000000000000000000000815260040161033a9061097b565b60405180910390fd5b61034d60006106de565b565b60008060009054906101000a900473ffffffffffffffffffffffffffffffffffffffff16905090565b6000600160008373ffffffffffffffffffffffffffffffffffffffff1673ffffffffffffffffffffffffffffffffffffffff168152602001908152602001600020549050919050565b6103c96105e2565b73ffffffffffffffffffffffffffffffffffffffff166103e761034f565b73ffffffffffffffffffffffffffffffffffffffff161461043d576040517f08c379a00000000000000000000000000000000000000000000000000000000081526004016104349061097b565b60405180910390fd5b600073ffffffffffffffffffffffffffffffffffffffff168173ffffffffffffffffffffffffffffffffffffffff1614156104ad576040517f08c379a00000000000000000000000000000000000000000000000000000000081526004016104a49061091b565b60405180910390fd5b6104b6816106de565b50565b6104c16105e2565b73ffffffffffffffffffffffffffffffffffffffff166104df61034f565b73ffffffffffffffffffffffffffffffffffffffff1614610535576040517f08c379a000000000000000000000000000000000000000000000000000000000815260040161052c9061097b565b60405180910390fd5b600034905080600160008473ffffffffffffffffffffffffffffffffffffffff1673ffffffffffffffffffffffffffffffffffffffff168152602001908152602001600020600082825461058991906109d2565b925050819055508173ffffffffffffffffffffffffffffffffffffffff167f2da466a7b24304f47e87fa2e1e5a81b9831ce54fec19055ce277ca2f39ba42c4826040516105d6919061099b565b60405180910390a25050565b600033905090565b8047101561062d576040517f08c379a00000000000000000000000000000000000000000000000000000000081526004016106249061095b565b60405180910390fd5b60008273ffffffffffffffffffffffffffffffffffffffff1682604051610653906108eb565b60006040518083038185875af1925050503d8060008114610690576040519150601f19603f3d011682016040523d82523d6000602084013e610695565b606091505b50509050806106d9576040517f08c379a00000000000000000000000000000000000000000000000000000000081526004016106d09061093b565b60405180910390fd5b505050565b60008060009054906101000a900473ffffffffffffffffffffffffffffffffffffffff169050816000806101000a81548173ffffffffffffffffffffffffffffffffffffffff021916908373ffffffffffffffffffffffffffffffffffffffff1602179055508173ffffffffffffffffffffffffffffffffffffffff168173ffffffffffffffffffffffffffffffffffffffff167f8be0079c531659141344cd1fd0a4f28419497f9722a3daafe3b4186f6b6457e060405160405180910390a35050565b6000813590506107b181610b98565b92915050565b6000813590506107c681610baf565b92915050565b6000602082840312156107de57600080fd5b60006107ec848285016107a2565b91505092915050565b60006020828403121561080757600080fd5b6000610815848285016107b7565b91505092915050565b61082781610a28565b82525050565b600061083a6026836109c1565b915061084582610aa5565b604082019050919050565b600061085d603a836109c1565b915061086882610af4565b604082019050919050565b6000610880601d836109c1565b915061088b82610b43565b602082019050919050565b60006108a36020836109c1565b91506108ae82610b6c565b602082019050919050565b60006108c66000836109b6565b91506108d182610b95565b600082019050919050565b6108e581610a6c565b82525050565b60006108f6826108b9565b9150819050919050565b6000602082019050610915600083018461081e565b92915050565b600060208201905081810360008301526109348161082d565b9050919050565b6000602082019050818103600083015261095481610850565b9050919050565b6000602082019050818103600083015261097481610873565b9050919050565b6000602082019050818103600083015261099481610896565b9050919050565b60006020820190506109b060008301846108dc565b92915050565b600081905092915050565b600082825260208201905092915050565b60006109dd82610a6c565b91506109e883610a6c565b9250827fffffffffffffffffffffffffffffffffffffffffffffffffffffffffffffffff03821115610a1d57610a1c610a76565b5b828201905092915050565b6000610a3382610a4c565b9050919050565b6000610a4582610a4c565b9050919050565b600073ffffffffffffffffffffffffffffffffffffffff82169050919050565b6000819050919050565b7f4e487b7100000000000000000000000000000000000000000000000000000000600052601160045260246000fd5b7f4f776e61626c653a206e6577206f776e657220697320746865207a65726f206160008201527f6464726573730000000000000000000000000000000000000000000000000000602082015250565b7f416464726573733a20756e61626c6520746f2073656e642076616c75652c207260008201527f6563697069656e74206d61792068617665207265766572746564000000000000602082015250565b7f416464726573733a20696e73756666696369656e742062616c616e6365000000600082015250565b7f4f776e61626c653a2063616c6c6572206973206e6f7420746865206f776e6572600082015250565b50565b610ba181610a28565b8114610bac57600080fd5b50565b610bb881610a3a565b8114610bc357600080fd5b5056fea264697066735822122073b307195fd92b28f2600edbbb914776573abe0392628b3f8a5ee2d6ab956cfa64736f6c63430008010033",
  "linkReferences": {},
  "deployedLinkReferences": {}
}