{
  "_format": "hh-sol-artifact-1",
  "contractName": "NFT",
  "sourceName": "contracts/NFT.sol",
  "abi": [
    {
      "inputs": [],
      "stateMutability": "nonpayable",
      "type": "constructor"
    },
    {
      "anonymous": false,
      "inputs": [
        {
          "indexed": true,
          "internalType": "address",
          "name": "owner",
          "type": "address"
        },
        {
          "indexed": true,
          "internalType": "address",
          "name": "approved",
          "type": "address"
        },
        {
          "indexed": true,
          "internalType": "uint256",
          "name": "tokenId",
          "type": "uint256"
        }
      ],
      "name": "Approval",
      "type": "event"
    },
    {
      "anonymous": false,
      "inputs": [
        {
          "indexed": true,
          "internalType": "address",
          "name": "owner",
          "type": "address"
        },
        {
          "indexed": true,
          "internalType": "address",
          "name": "operator",
          "type": "address"
        },
        {
          "indexed": false,
          "internalType": "bool",
          "name": "approved",
          "type": "bool"
        }
      ],
      "name": "ApprovalForAll",
      "type": "event"
    },
    {
      "anonymous": false,
      "inputs": [
        {
          "indexed": true,
          "internalType": "address",
          "name": "from",
          "type": "address"
        },
        {
          "indexed": true,
          "internalType": "address",
          "name": "to",
          "type": "address"
        },
        {
          "indexed": true,
          "internalType": "uint256",
          "name": "tokenId",
          "type": "uint256"
        }
      ],
      "name": "Transfer",
      "type": "event"
    },
    {
      "inputs": [
        {
          "internalType": "address",
          "name": "to",
          "type": "address"
        },
        {
          "internalType": "uint256",
          "name": "tokenId",
          "type": "uint256"
        }
      ],
      "name": "approve",
      "outputs": [],
      "stateMutability": "nonpayable",
      "type": "function"
    },
    {
      "inputs": [
        {
          "internalType": "address",
          "name": "owner",
          "type": "address"
        }
      ],
      "name": "balanceOf",
      "outputs": [
        {
          "internalType": "uint256",
          "name": "",
          "type": "uint256"
        }
      ],
      "stateMutability": "view",
      "type": "function"
    },
    {
      "inputs": [],
      "name": "baseTokenURI",
      "outputs": [
        {
          "internalType": "string",
          "name": "",
          "type": "string"
        }
      ],
      "stateMutability": "view",
      "type": "function"
    },
    {
      "inputs": [
        {
          "internalType": "uint256",
          "name": "tokenId",
          "type": "uint256"
        }
      ],
      "name": "getApproved",
      "outputs": [
        {
          "internalType": "address",
          "name": "",
          "type": "address"
        }
      ],
      "stateMutability": "view",
      "type": "function"
    },
    {
      "inputs": [
        {
          "internalType": "address",
          "name": "owner",
          "type": "address"
        },
        {
          "internalType": "address",
          "name": "operator",
          "type": "address"
        }
      ],
      "name": "isApprovedForAll",
      "outputs": [
        {
          "internalType": "bool",
          "name": "",
          "type": "bool"
        }
      ],
      "stateMutability": "view",
      "type": "function"
    },
    {
      "inputs": [
        {
          "internalType": "address",
          "name": "recipient",
          "type": "address"
        }
      ],
      "name": "mintTo",
      "outputs": [
        {
          "internalType": "uint256",
          "name": "",
          "type": "uint256"
        }
      ],
      "stateMutability": "nonpayable",
      "type": "function"
    },
    {
      "inputs": [],
      "name": "name",
      "outputs": [
        {
          "internalType": "string",
          "name": "",
          "type": "string"
        }
      ],
      "stateMutability": "view",
      "type": "function"
    },
    {
      "inputs": [
        {
          "internalType": "uint256",
          "name": "tokenId",
          "type": "uint256"
        }
      ],
      "name": "ownerOf",
      "outputs": [
        {
          "internalType": "address",
          "name": "",
          "type": "address"
        }
      ],
      "stateMutability": "view",
      "type": "function"
    },
    {
      "inputs": [
        {
          "internalType": "address",
          "name": "from",
          "type": "address"
        },
        {
          "internalType": "address",
          "name": "to",
          "type": "address"
        },
        {
          "internalType": "uint256",
          "name": "tokenId",
          "type": "uint256"
        }
      ],
      "name": "safeTransferFrom",
      "outputs": [],
      "stateMutability": "nonpayable",
      "type": "function"
    },
    {
      "inputs": [
        {
          "internalType": "address",
          "name": "from",
          "type": "address"
        },
        {
          "internalType": "address",
          "name": "to",
          "type": "address"
        },
        {
          "internalType": "uint256",
          "name": "tokenId",
          "type": "uint256"
        },
        {
          "internalType": "bytes",
          "name": "_data",
          "type": "bytes"
        }
      ],
      "name": "safeTransferFrom",
      "outputs": [],
      "stateMutability": "nonpayable",
      "type": "function"
    },
    {
      "inputs": [
        {
          "internalType": "address",
          "name": "operator",
          "type": "address"
        },
        {
          "internalType": "bool",
          "name": "approved",
          "type": "bool"
        }
      ],
      "name": "setApprovalForAll",
      "outputs": [],
      "stateMutability": "nonpayable",
      "type": "function"
    },
    {
      "inputs": [
        {
          "internalType": "string",
          "name": "_baseTokenURI",
          "type": "string"
        }
      ],
      "name": "setBaseTokenURI",
      "outputs": [],
      "stateMutability": "nonpayable",
      "type": "function"
    },
    {
      "inputs": [
        {
          "internalType": "bytes4",
          "name": "interfaceId",
          "type": "bytes4"
        }
      ],
      "name": "supportsInterface",
      "outputs": [
        {
          "internalType": "bool",
          "name": "",
          "type": "bool"
        }
      ],
      "stateMutability": "view",
      "type": "function"
    },
    {
      "inputs": [],
      "name": "symbol",
      "outputs": [
        {
          "internalType": "string",
          "name": "",
          "type": "string"
        }
      ],
      "stateMutability": "view",
      "type": "function"
    },
    {
      "inputs": [
        {
          "internalType": "uint256",
          "name": "tokenId",
          "type": "uint256"
        }
      ],
      "name": "tokenURI",
      "outputs": [
        {
          "internalType": "string",
          "name": "",
          "type": "string"
        }
      ],
      "stateMutability": "view",
      "type": "function"
    },
    {
      "inputs": [
        {
          "internalType": "address",
          "name": "from",
          "type": "address"
        },
        {
          "internalType": "address",
          "name": "to",
          "type": "address"
        },
        {
          "internalType": "uint256",
          "name": "tokenId",
          "type": "uint256"
        }
      ],
      "name": "transferFrom",
      "outputs": [],
      "stateMutability": "nonpayable",
      "type": "function"
    }
  ],
  "bytecode": "0x60806040523480156200001157600080fd5b506040518060400160405280600a81526020017f33313350726f79656374000000000000000000000000000000000000000000008152506040518060400160405280600381526020017f4e46540000000000000000000000000000000000000000000000000000000000815250816000908051906020019062000096929190620000e0565b508060019080519060200190620000af929190620000e0565b5050506040518060200160405280600081525060079080519060200190620000d9929190620000e0565b50620001f5565b828054620000ee9062000190565b90600052602060002090601f0160209004810192826200011257600085556200015e565b82601f106200012d57805160ff19168380011785556200015e565b828001600101855582156200015e579182015b828111156200015d57825182559160200191906001019062000140565b5b5090506200016d919062000171565b5090565b5b808211156200018c57600081600090555060010162000172565b5090565b60006002820490506001821680620001a957607f821691505b60208210811415620001c057620001bf620001c6565b5b50919050565b7f4e487b7100000000000000000000000000000000000000000000000000000000600052602260045260246000fd5b612b6180620002056000396000f3fe608060405234801561001057600080fd5b50600436106101005760003560e01c806370a0823111610097578063b88d4fde11610066578063b88d4fde146102bd578063c87b56dd146102d9578063d547cfb714610309578063e985e9c51461032757610100565b806370a0823114610223578063755edd171461025357806395d89b4114610283578063a22cb465146102a157610100565b806323b872dd116100d357806323b872dd1461019f57806330176e13146101bb57806342842e0e146101d75780636352211e146101f357610100565b806301ffc9a71461010557806306fdde0314610135578063081812fc14610153578063095ea7b314610183575b600080fd5b61011f600480360381019061011a9190611c5f565b610357565b60405161012c9190612083565b60405180910390f35b61013d610439565b60405161014a919061209e565b60405180910390f35b61016d60048036038101906101689190611cf2565b6104cb565b60405161017a919061201c565b60405180910390f35b61019d60048036038101906101989190611c23565b610550565b005b6101b960048036038101906101b49190611b1d565b610668565b005b6101d560048036038101906101d09190611cb1565b6106c8565b005b6101f160048036038101906101ec9190611b1d565b6106e2565b005b61020d60048036038101906102089190611cf2565b610702565b60405161021a919061201c565b60405180910390f35b61023d60048036038101906102389190611ab8565b6107b4565b60405161024a91906122a0565b60405180910390f35b61026d60048036038101906102689190611ab8565b61086c565b60405161027a91906122a0565b60405180910390f35b61028b6108ea565b604051610298919061209e565b60405180910390f35b6102bb60048036038101906102b69190611be7565b61097c565b005b6102d760048036038101906102d29190611b6c565b610992565b005b6102f360048036038101906102ee9190611cf2565b6109f4565b604051610300919061209e565b60405180910390f35b610311610a9b565b60405161031e919061209e565b60405180910390f35b610341600480360381019061033c9190611ae1565b610b29565b60405161034e9190612083565b60405180910390f35b60007f80ac58cd000000000000000000000000000000000000000000000000000000007bffffffffffffffffffffffffffffffffffffffffffffffffffffffff1916827bffffffffffffffffffffffffffffffffffffffffffffffffffffffff1916148061042257507f5b5e139f000000000000000000000000000000000000000000000000000000007bffffffffffffffffffffffffffffffffffffffffffffffffffffffff1916827bffffffffffffffffffffffffffffffffffffffffffffffffffffffff1916145b80610432575061043182610bbd565b5b9050919050565b606060008054610448906124f6565b80601f0160208091040260200160405190810160405280929190818152602001828054610474906124f6565b80156104c15780601f10610496576101008083540402835291602001916104c1565b820191906000526020600020905b8154815290600101906020018083116104a457829003601f168201915b5050505050905090565b60006104d682610c27565b610515576040517f08c379a000000000000000000000000000000000000000000000000000000000815260040161050c90612200565b60405180910390fd5b6004600083815260200190815260200160002060009054906101000a900473ffffffffffffffffffffffffffffffffffffffff169050919050565b600061055b82610702565b90508073ffffffffffffffffffffffffffffffffffffffff168373ffffffffffffffffffffffffffffffffffffffff1614156105cc576040517f08c379a00000000000000000000000000000000000000000000000000000000081526004016105c390612240565b60405180910390fd5b8073ffffffffffffffffffffffffffffffffffffffff166105eb610c93565b73ffffffffffffffffffffffffffffffffffffffff16148061061a575061061981610614610c93565b610b29565b5b610659576040517f08c379a000000000000000000000000000000000000000000000000000000000815260040161065090612180565b60405180910390fd5b6106638383610c9b565b505050565b610679610673610c93565b82610d54565b6106b8576040517f08c379a00000000000000000000000000000000000000000000000000000000081526004016106af90612260565b60405180910390fd5b6106c3838383610e32565b505050565b80600790805190602001906106de9291906118dc565b5050565b6106fd83838360405180602001604052806000815250610992565b505050565b6000806002600084815260200190815260200160002060009054906101000a900473ffffffffffffffffffffffffffffffffffffffff169050600073ffffffffffffffffffffffffffffffffffffffff168173ffffffffffffffffffffffffffffffffffffffff1614156107ab576040517f08c379a00000000000000000000000000000000000000000000000000000000081526004016107a2906121c0565b60405180910390fd5b80915050919050565b60008073ffffffffffffffffffffffffffffffffffffffff168273ffffffffffffffffffffffffffffffffffffffff161415610825576040517f08c379a000000000000000000000000000000000000000000000000000000000815260040161081c906121a0565b60405180910390fd5b600360008373ffffffffffffffffffffffffffffffffffffffff1673ffffffffffffffffffffffffffffffffffffffff168152602001908152602001600020549050919050565b600080610878836107b4565b905060038111156108be576040517f08c379a00000000000000000000000000000000000000000000000000000000081526004016108b590612280565b60405180910390fd5b6108c86006611099565b60006108d460066110af565b90506108e084826110bd565b8092505050919050565b6060600180546108f9906124f6565b80601f0160208091040260200160405190810160405280929190818152602001828054610925906124f6565b80156109725780601f1061094757610100808354040283529160200191610972565b820191906000526020600020905b81548152906001019060200180831161095557829003601f168201915b5050505050905090565b61098e610987610c93565b83836110db565b5050565b6109a361099d610c93565b83610d54565b6109e2576040517f08c379a00000000000000000000000000000000000000000000000000000000081526004016109d990612260565b60405180910390fd5b6109ee84848484611248565b50505050565b60606109ff82610c27565b610a3e576040517f08c379a0000000000000000000000000000000000000000000000000000000008152600401610a3590612220565b60405180910390fd5b6000610a486112a4565b90506000815111610a685760405180602001604052806000815250610a93565b80610a7284611336565b604051602001610a83929190611ff8565b6040516020818303038152906040525b915050919050565b60078054610aa8906124f6565b80601f0160208091040260200160405190810160405280929190818152602001828054610ad4906124f6565b8015610b215780601f10610af657610100808354040283529160200191610b21565b820191906000526020600020905b815481529060010190602001808311610b0457829003601f168201915b505050505081565b6000600560008473ffffffffffffffffffffffffffffffffffffffff1673ffffffffffffffffffffffffffffffffffffffff16815260200190815260200160002060008373ffffffffffffffffffffffffffffffffffffffff1673ffffffffffffffffffffffffffffffffffffffff16815260200190815260200160002060009054906101000a900460ff16905092915050565b60007f01ffc9a7000000000000000000000000000000000000000000000000000000007bffffffffffffffffffffffffffffffffffffffffffffffffffffffff1916827bffffffffffffffffffffffffffffffffffffffffffffffffffffffff1916149050919050565b60008073ffffffffffffffffffffffffffffffffffffffff166002600084815260200190815260200160002060009054906101000a900473ffffffffffffffffffffffffffffffffffffffff1673ffffffffffffffffffffffffffffffffffffffff1614159050919050565b600033905090565b816004600083815260200190815260200160002060006101000a81548173ffffffffffffffffffffffffffffffffffffffff021916908373ffffffffffffffffffffffffffffffffffffffff160217905550808273ffffffffffffffffffffffffffffffffffffffff16610d0e83610702565b73ffffffffffffffffffffffffffffffffffffffff167f8c5be1e5ebec7d5bd14f71427d1e84f3dd0314c0f7b2291e5b200ac8c7c3b92560405160405180910390a45050565b6000610d5f82610c27565b610d9e576040517f08c379a0000000000000000000000000000000000000000000000000000000008152600401610d9590612160565b60405180910390fd5b6000610da983610702565b90508073ffffffffffffffffffffffffffffffffffffffff168473ffffffffffffffffffffffffffffffffffffffff161480610e1857508373ffffffffffffffffffffffffffffffffffffffff16610e00846104cb565b73ffffffffffffffffffffffffffffffffffffffff16145b80610e295750610e288185610b29565b5b91505092915050565b8273ffffffffffffffffffffffffffffffffffffffff16610e5282610702565b73ffffffffffffffffffffffffffffffffffffffff1614610ea8576040517f08c379a0000000000000000000000000000000000000000000000000000000008152600401610e9f906120e0565b60405180910390fd5b600073ffffffffffffffffffffffffffffffffffffffff168273ffffffffffffffffffffffffffffffffffffffff161415610f18576040517f08c379a0000000000000000000000000000000000000000000000000000000008152600401610f0f90612120565b60405180910390fd5b610f238383836114e3565b610f2e600082610c9b565b6001600360008573ffffffffffffffffffffffffffffffffffffffff1673ffffffffffffffffffffffffffffffffffffffff1681526020019081526020016000206000828254610f7e919061240c565b925050819055506001600360008473ffffffffffffffffffffffffffffffffffffffff1673ffffffffffffffffffffffffffffffffffffffff1681526020019081526020016000206000828254610fd59190612385565b92505081905550816002600083815260200190815260200160002060006101000a81548173ffffffffffffffffffffffffffffffffffffffff021916908373ffffffffffffffffffffffffffffffffffffffff160217905550808273ffffffffffffffffffffffffffffffffffffffff168473ffffffffffffffffffffffffffffffffffffffff167fddf252ad1be2c89b69c2b068fc378daa952ba7f163c4a11628f55a4df523b3ef60405160405180910390a46110948383836114e8565b505050565b6001816000016000828254019250508190555050565b600081600001549050919050565b6110d78282604051806020016040528060008152506114ed565b5050565b8173ffffffffffffffffffffffffffffffffffffffff168373ffffffffffffffffffffffffffffffffffffffff16141561114a576040517f08c379a000000000000000000000000000000000000000000000000000000000815260040161114190612140565b60405180910390fd5b80600560008573ffffffffffffffffffffffffffffffffffffffff1673ffffffffffffffffffffffffffffffffffffffff16815260200190815260200160002060008473ffffffffffffffffffffffffffffffffffffffff1673ffffffffffffffffffffffffffffffffffffffff16815260200190815260200160002060006101000a81548160ff0219169083151502179055508173ffffffffffffffffffffffffffffffffffffffff168373ffffffffffffffffffffffffffffffffffffffff167f17307eab39ab6107e8899845ad3d59bd9653f200f220920489ca2b5937696c318360405161123b9190612083565b60405180910390a3505050565b611253848484610e32565b61125f84848484611548565b61129e576040517f08c379a0000000000000000000000000000000000000000000000000000000008152600401611295906120c0565b60405180910390fd5b50505050565b6060600780546112b3906124f6565b80601f01602080910402602001604051908101604052809291908181526020018280546112df906124f6565b801561132c5780601f106113015761010080835404028352916020019161132c565b820191906000526020600020905b81548152906001019060200180831161130f57829003601f168201915b5050505050905090565b6060600082141561137e576040518060400160405280600181526020017f300000000000000000000000000000000000000000000000000000000000000081525090506114de565b600082905060005b600082146113b057808061139990612559565b915050600a826113a991906123db565b9150611386565b60008167ffffffffffffffff8111156113f2577f4e487b7100000000000000000000000000000000000000000000000000000000600052604160045260246000fd5b6040519080825280601f01601f1916602001820160405280156114245781602001600182028036833780820191505090505b5090505b600085146114d75760018261143d919061240c565b9150600a8561144c91906125a2565b60306114589190612385565b60f81b818381518110611494577f4e487b7100000000000000000000000000000000000000000000000000000000600052603260045260246000fd5b60200101907effffffffffffffffffffffffffffffffffffffffffffffffffffffffffffff1916908160001a905350600a856114d091906123db565b9450611428565b8093505050505b919050565b505050565b505050565b6114f783836116df565b6115046000848484611548565b611543576040517f08c379a000000000000000000000000000000000000000000000000000000000815260040161153a906120c0565b60405180910390fd5b505050565b60006115698473ffffffffffffffffffffffffffffffffffffffff166118b9565b156116d2578373ffffffffffffffffffffffffffffffffffffffff1663150b7a02611592610c93565b8786866040518563ffffffff1660e01b81526004016115b49493929190612037565b602060405180830381600087803b1580156115ce57600080fd5b505af19250505080156115ff57506040513d601f19601f820116820180604052508101906115fc9190611c88565b60015b611682573d806000811461162f576040519150601f19603f3d011682016040523d82523d6000602084013e611634565b606091505b5060008151141561167a576040517f08c379a0000000000000000000000000000000000000000000000000000000008152600401611671906120c0565b60405180910390fd5b805181602001fd5b63150b7a0260e01b7bffffffffffffffffffffffffffffffffffffffffffffffffffffffff1916817bffffffffffffffffffffffffffffffffffffffffffffffffffffffff1916149150506116d7565b600190505b949350505050565b600073ffffffffffffffffffffffffffffffffffffffff168273ffffffffffffffffffffffffffffffffffffffff16141561174f576040517f08c379a0000000000000000000000000000000000000000000000000000000008152600401611746906121e0565b60405180910390fd5b61175881610c27565b15611798576040517f08c379a000000000000000000000000000000000000000000000000000000000815260040161178f90612100565b60405180910390fd5b6117a4600083836114e3565b6001600360008473ffffffffffffffffffffffffffffffffffffffff1673ffffffffffffffffffffffffffffffffffffffff16815260200190815260200160002060008282546117f49190612385565b92505081905550816002600083815260200190815260200160002060006101000a81548173ffffffffffffffffffffffffffffffffffffffff021916908373ffffffffffffffffffffffffffffffffffffffff160217905550808273ffffffffffffffffffffffffffffffffffffffff16600073ffffffffffffffffffffffffffffffffffffffff167fddf252ad1be2c89b69c2b068fc378daa952ba7f163c4a11628f55a4df523b3ef60405160405180910390a46118b5600083836114e8565b5050565b6000808273ffffffffffffffffffffffffffffffffffffffff163b119050919050565b8280546118e8906124f6565b90600052602060002090601f01602090048101928261190a5760008555611951565b82601f1061192357805160ff1916838001178555611951565b82800160010185558215611951579182015b82811115611950578251825591602001919060010190611935565b5b50905061195e9190611962565b5090565b5b8082111561197b576000816000905550600101611963565b5090565b600061199261198d846122e0565b6122bb565b9050828152602081018484840111156119aa57600080fd5b6119b58482856124b4565b509392505050565b60006119d06119cb84612311565b6122bb565b9050828152602081018484840111156119e857600080fd5b6119f38482856124b4565b509392505050565b600081359050611a0a81612acf565b92915050565b600081359050611a1f81612ae6565b92915050565b600081359050611a3481612afd565b92915050565b600081519050611a4981612afd565b92915050565b600082601f830112611a6057600080fd5b8135611a7084826020860161197f565b91505092915050565b600082601f830112611a8a57600080fd5b8135611a9a8482602086016119bd565b91505092915050565b600081359050611ab281612b14565b92915050565b600060208284031215611aca57600080fd5b6000611ad8848285016119fb565b91505092915050565b60008060408385031215611af457600080fd5b6000611b02858286016119fb565b9250506020611b13858286016119fb565b9150509250929050565b600080600060608486031215611b3257600080fd5b6000611b40868287016119fb565b9350506020611b51868287016119fb565b9250506040611b6286828701611aa3565b9150509250925092565b60008060008060808587031215611b8257600080fd5b6000611b90878288016119fb565b9450506020611ba1878288016119fb565b9350506040611bb287828801611aa3565b925050606085013567ffffffffffffffff811115611bcf57600080fd5b611bdb87828801611a4f565b91505092959194509250565b60008060408385031215611bfa57600080fd5b6000611c08858286016119fb565b9250506020611c1985828601611a10565b9150509250929050565b60008060408385031215611c3657600080fd5b6000611c44858286016119fb565b9250506020611c5585828601611aa3565b9150509250929050565b600060208284031215611c7157600080fd5b6000611c7f84828501611a25565b91505092915050565b600060208284031215611c9a57600080fd5b6000611ca884828501611a3a565b91505092915050565b600060208284031215611cc357600080fd5b600082013567ffffffffffffffff811115611cdd57600080fd5b611ce984828501611a79565b91505092915050565b600060208284031215611d0457600080fd5b6000611d1284828501611aa3565b91505092915050565b611d2481612440565b82525050565b611d3381612452565b82525050565b6000611d4482612342565b611d4e8185612358565b9350611d5e8185602086016124c3565b611d678161268f565b840191505092915050565b6000611d7d8261234d565b611d878185612369565b9350611d978185602086016124c3565b611da08161268f565b840191505092915050565b6000611db68261234d565b611dc0818561237a565b9350611dd08185602086016124c3565b80840191505092915050565b6000611de9603283612369565b9150611df4826126a0565b604082019050919050565b6000611e0c602583612369565b9150611e17826126ef565b604082019050919050565b6000611e2f601c83612369565b9150611e3a8261273e565b602082019050919050565b6000611e52602483612369565b9150611e5d82612767565b604082019050919050565b6000611e75601983612369565b9150611e80826127b6565b602082019050919050565b6000611e98602c83612369565b9150611ea3826127df565b604082019050919050565b6000611ebb603883612369565b9150611ec68261282e565b604082019050919050565b6000611ede602a83612369565b9150611ee98261287d565b604082019050919050565b6000611f01602983612369565b9150611f0c826128cc565b604082019050919050565b6000611f24602083612369565b9150611f2f8261291b565b602082019050919050565b6000611f47602c83612369565b9150611f5282612944565b604082019050919050565b6000611f6a602f83612369565b9150611f7582612993565b604082019050919050565b6000611f8d602183612369565b9150611f98826129e2565b604082019050919050565b6000611fb0603183612369565b9150611fbb82612a31565b604082019050919050565b6000611fd3602f83612369565b9150611fde82612a80565b604082019050919050565b611ff2816124aa565b82525050565b60006120048285611dab565b91506120108284611dab565b91508190509392505050565b60006020820190506120316000830184611d1b565b92915050565b600060808201905061204c6000830187611d1b565b6120596020830186611d1b565b6120666040830185611fe9565b81810360608301526120788184611d39565b905095945050505050565b60006020820190506120986000830184611d2a565b92915050565b600060208201905081810360008301526120b88184611d72565b905092915050565b600060208201905081810360008301526120d981611ddc565b9050919050565b600060208201905081810360008301526120f981611dff565b9050919050565b6000602082019050818103600083015261211981611e22565b9050919050565b6000602082019050818103600083015261213981611e45565b9050919050565b6000602082019050818103600083015261215981611e68565b9050919050565b6000602082019050818103600083015261217981611e8b565b9050919050565b6000602082019050818103600083015261219981611eae565b9050919050565b600060208201905081810360008301526121b981611ed1565b9050919050565b600060208201905081810360008301526121d981611ef4565b9050919050565b600060208201905081810360008301526121f981611f17565b9050919050565b6000602082019050818103600083015261221981611f3a565b9050919050565b6000602082019050818103600083015261223981611f5d565b9050919050565b6000602082019050818103600083015261225981611f80565b9050919050565b6000602082019050818103600083015261227981611fa3565b9050919050565b6000602082019050818103600083015261229981611fc6565b9050919050565b60006020820190506122b56000830184611fe9565b92915050565b60006122c56122d6565b90506122d18282612528565b919050565b6000604051905090565b600067ffffffffffffffff8211156122fb576122fa612660565b5b6123048261268f565b9050602081019050919050565b600067ffffffffffffffff82111561232c5761232b612660565b5b6123358261268f565b9050602081019050919050565b600081519050919050565b600081519050919050565b600082825260208201905092915050565b600082825260208201905092915050565b600081905092915050565b6000612390826124aa565b915061239b836124aa565b9250827fffffffffffffffffffffffffffffffffffffffffffffffffffffffffffffffff038211156123d0576123cf6125d3565b5b828201905092915050565b60006123e6826124aa565b91506123f1836124aa565b92508261240157612400612602565b5b828204905092915050565b6000612417826124aa565b9150612422836124aa565b925082821015612435576124346125d3565b5b828203905092915050565b600061244b8261248a565b9050919050565b60008115159050919050565b60007fffffffff0000000000000000000000000000000000000000000000000000000082169050919050565b600073ffffffffffffffffffffffffffffffffffffffff82169050919050565b6000819050919050565b82818337600083830152505050565b60005b838110156124e15780820151818401526020810190506124c6565b838111156124f0576000848401525b50505050565b6000600282049050600182168061250e57607f821691505b6020821081141561252257612521612631565b5b50919050565b6125318261268f565b810181811067ffffffffffffffff821117156125505761254f612660565b5b80604052505050565b6000612564826124aa565b91507fffffffffffffffffffffffffffffffffffffffffffffffffffffffffffffffff821415612597576125966125d3565b5b600182019050919050565b60006125ad826124aa565b91506125b8836124aa565b9250826125c8576125c7612602565b5b828206905092915050565b7f4e487b7100000000000000000000000000000000000000000000000000000000600052601160045260246000fd5b7f4e487b7100000000000000000000000000000000000000000000000000000000600052601260045260246000fd5b7f4e487b7100000000000000000000000000000000000000000000000000000000600052602260045260246000fd5b7f4e487b7100000000000000000000000000000000000000000000000000000000600052604160045260246000fd5b6000601f19601f8301169050919050565b7f4552433732313a207472616e7366657220746f206e6f6e20455243373231526560008201527f63656976657220696d706c656d656e7465720000000000000000000000000000602082015250565b7f4552433732313a207472616e736665722066726f6d20696e636f72726563742060008201527f6f776e6572000000000000000000000000000000000000000000000000000000602082015250565b7f4552433732313a20746f6b656e20616c7265616479206d696e74656400000000600082015250565b7f4552433732313a207472616e7366657220746f20746865207a65726f2061646460008201527f7265737300000000000000000000000000000000000000000000000000000000602082015250565b7f4552433732313a20617070726f766520746f2063616c6c657200000000000000600082015250565b7f4552433732313a206f70657261746f7220717565727920666f72206e6f6e657860008201527f697374656e7420746f6b656e0000000000000000000000000000000000000000602082015250565b7f4552433732313a20617070726f76652063616c6c6572206973206e6f74206f7760008201527f6e6572206e6f7220617070726f76656420666f7220616c6c0000000000000000602082015250565b7f4552433732313a2062616c616e636520717565727920666f7220746865207a6560008201527f726f206164647265737300000000000000000000000000000000000000000000602082015250565b7f4552433732313a206f776e657220717565727920666f72206e6f6e657869737460008201527f656e7420746f6b656e0000000000000000000000000000000000000000000000602082015250565b7f4552433732313a206d696e7420746f20746865207a65726f2061646472657373600082015250565b7f4552433732313a20617070726f76656420717565727920666f72206e6f6e657860008201527f697374656e7420746f6b656e0000000000000000000000000000000000000000602082015250565b7f4552433732314d657461646174613a2055524920717565727920666f72206e6f60008201527f6e6578697374656e7420746f6b656e0000000000000000000000000000000000602082015250565b7f4552433732313a20617070726f76616c20746f2063757272656e74206f776e6560008201527f7200000000000000000000000000000000000000000000000000000000000000602082015250565b7f4552433732313a207472616e736665722063616c6c6572206973206e6f74206f60008201527f776e6572206e6f7220617070726f766564000000000000000000000000000000602082015250565b7f457863656564656420746865206d6178696d756d20616c6c6f776564204d696e60008201527f74696e67207065722077616c6c65740000000000000000000000000000000000602082015250565b612ad881612440565b8114612ae357600080fd5b50565b612aef81612452565b8114612afa57600080fd5b50565b612b068161245e565b8114612b1157600080fd5b50565b612b1d816124aa565b8114612b2857600080fd5b5056fea2646970667358221220df261aa9deaacc23e6f6b1cf80af0eb42bad7ca6e3a9525822a6cadddf43302364736f6c63430008010033",
  "linkReferences": {},
  "deployedLinkReferences": {}
}